:10000000CAC00000EFC00000EDC00000EBC000005F
:10001000E9C00000E7C00000E5C000000C949D238B
:10002000E1C00000DFC00000DDC000000C946B1ECA
:10003000D9C00000D7C00000D5C00000D3C0000068
:10004000E0C40000CFC0000020C2000050C2000089
:10005000C9C00000C7C00000C5C00000C3C0000088
:10006000C1C00000BFC00000084AD73B3BCE016EB4
:1000700084BCBFFDC12F3D6C74319ABD56833DDAFF
:100080003D00C77F11BED9E4BB4C3E916BAAAABE0E
:10009000000000803F072C7AA5BA6CC590DA3B932C
:1000A00065FC8BBC53F810FD3C5692834DBD879D7B
:1000B0003AB63DCBC9BF5BBE73DA0FC93F05A84C4A
:1000C000CDB2D44EB93836A9020C50B99186880801
:1000D0003CA6AAAA2ABE000000803F004631004686
:1000E00031005D005B46005B53005D005B46005BDA
:1000F00053005D005B46005B5300020000000800F7
:1001000002010000030407000000000000000001DD
:10011000020408102040800102040810200102049B
:10012000081020040404040404040402020202026D
:100130000203030303030300000000230026002939
:100140000000000000250028002B00000000002413
:100150000027002A004E414E494E495459494E4607
:10016000CDCCCC3D0AD7233C17B7D13877CC2B3236
:100170009595E6241FB14F0A000020410000C842B7
:1001800000401C4620BCBE4CCA1B0E5AAEC59D7416
:10019000A5026E1C781C11241FBECFEFD8E0DEBF75
:1001A000CDBF11E0A0E0B1E0E6EEFCE502C00590B5
:1001B0000D92A43DB107D9F726E0A4EDB1E001C04E
:1001C0001D92A530B207E1F711E0C4E9D1E004C007
:1001D0002297FE010E943227C039D107C9F707D400
:1001E0000C94672E0DCF26E040E052EC61E070E009
:1001F00084ED91E0E8D080E892E00C94100C80E867
:1002000092E00C947B1CFC01818D228D90E0805C3F
:100210009F4F821B91098F7399270895FC01918D3F
:10022000828D981731F0828DE80FF11D858D90E059
:1002300008958FEF9FEF0895FC01918D828D98179F
:1002400061F0828DDF01A80FB11D5D968C91928DBA
:100250009F5F9F73928F90E008958FEF9FEF0895B7
:100260008CE992E0892B41F080E090E0892B21F02D
:1002700063D181110C9400000895FC01848DDF018D
:10028000A80FB11DA35ABF4F2C91848D90E0019609
:100290008F739927848FA689B7892C93A089B189F8
:1002A0008C9180648C93938D848D981306C0028802
:1002B000F389E02D80818F7D80830895CF93DF9334
:1002C000EC01888D8823C1F0EA89FB89808185FD56
:1002D00005C0A889B9898C9186FD0EC00FB607FCB0
:1002E000F5CF808185FFF2CFA889B9898C9185FFF0
:1002F000EDCFCE01C2DFE8CFDF91CF910895CF924D
:10030000DF92FF920F931F93CF93DF931F92CDB78E
:10031000DEB76C0181E0D60158968C9358975B96B6
:100320009C915B975C968C915C97981307C0509654
:10033000ED91FC915197808185FD2DC0F601038DD3
:1003400010E00F5F1F4F0F731127F02EF601848D01
:10035000F81210C00FB607FCF9CFD6015096ED91F8
:10036000FC915197808185FFF1CFC601698385DFBC
:100370006981ECCF838DE80FF11DE35AFF4F608355
:10038000D6015B960C935B975296ED91FC91539737
:10039000808180620CC0D6015696ED91FC915797F2
:1003A00060835096ED91FC915197808180648083A9
:1003B00081E090E00F90DF91CF911F910F91FF901E
:1003C000DF90CF900895BF92CF92DF92EF92FF928D
:1003D000CF93DF93EC016A017B01B22EE889F989A2
:1003E00082E08083411581EE580761057105A1F017
:1003F00060E079E08DE390E0A70196010E94E82695
:10040000215031094109510956954795379527954E
:10041000211580E1380798F0E889F989108260E8B1
:1004200074E88EE190E0A70196010E94E826215031
:100430003109410951095695479537952795EC851E
:10044000FD853083EE85FF852083188EEC89FD893C
:10045000B082EA89FB89808180618083EA89FB8997
:10046000808188608083EA89FB89808180688083BD
:10047000EA89FB8980818F7D8083DF91CF91FF9016
:10048000EF90DF90CF90BF9008951F920F920FB61C
:100490000F9211242F938F939F93EF93FF93E091EB
:1004A000E401F091E5018081E091EA01F091EB0136
:1004B00082FD12C090818091ED018F5F8F7320913A
:1004C000EE01821751F0E091ED01F0E0EC52FE4FA9
:1004D000958F8093ED0101C08081FF91EF919F91F5
:1004E0008F912F910F900FBE0F901F9018951F9214
:1004F0000F920FB60F9211242F933F934F935F9358
:100500006F937F938F939F93AF93BF93EF93FF93DB
:1005100084ED91E0B2DEFF91EF91BF91AF919F9199
:100520008F917F916F915F914F913F912F910F909C
:100530000FBE0F901F90189584ED91E064DE21E0CE
:10054000892B09F420E0822F08951092D701109290
:10055000D60188EE93E0A0E0B0E08093D8019093BC
:10056000D901A093DA01B093DB0180E191E090938F
:10057000D5018093D40185EC90E09093E1018093C4
:10058000E00184EC90E09093E3018093E20180EC41
:1005900090E09093E5018093E40181EC90E09093EA
:1005A000E7018093E60182EC90E09093E90180936B
:1005B000E80186EC90E09093EB018093EA011092C1
:1005C000ED011092EE011092EF011092F0010895EA
:1005D000CF92DF92EF92FF920F931F93CF93DF930F
:1005E0007C016A01EB0100E010E00C151D0571F0C3
:1005F0006991D701ED91FC910190F081E02DC70147
:100600000995892B19F00F5F1F4FEFCFC801DF91BC
:10061000CF911F910F91FF90EF90DF90CF900895B1
:100620006115710581F0DB010D900020E9F7AD0146
:1006300041505109461B570BDC01ED91FC910280A2
:10064000F381E02D099480E090E00895EF92FF920D
:100650000F931F93CF93DF938C017B01C0E0D0E019
:10066000F701EC0FFD1F6491662359F0F801A0819A
:10067000B181ED91FC91C8010995892B11F021966A
:10068000EFCFCE01DF91CF911F910F91FF90EF90AF
:100690000895DC01ED91FC910190F081E02D099429
:1006A0006CE171E0BDCF0F931F93CF93DF93EC010B
:1006B000CDDF8C01CE01F4DF800F911FDF91CF9150
:1006C0001F910F9108950F931F93CF93DF93EC0128
:1006D000A7DF8C01CE01E4DF800F911FDF91CF9166
:1006E0001F910F9108958F929F92AF92BF92DF92C8
:1006F000EF92FF920F931F93CF93DF93CDB7DEB7A7
:10070000A1970FB6F894DEBF0FBECDBF7C01F42FCA
:10071000D52ECB0119A2223008F42AE08E010F5DFC
:100720001F4F822E912CA12CB12C6F2F7D2DA50156
:1007300094010E94E826F22FD32ECA01015011091C
:100740006A3014F4E0E301C0E7E3E60FD801EC936C
:10075000232B242B252B49F7B801C70161DFA19674
:100760000FB6F894DEBF0FBECDBFDF91CF911F91C2
:100770000F91FF90EF90DF90BF90AF909F908F9080
:100780000895CF92DF92EF92FF920F931F93CF9332
:10079000DF93EC016A017B012115310579F4E881D1
:1007A000F9810190F081E02D642FDF91CF911F91AD
:1007B0000F91FF90EF90DF90CF9009942A30310590
:1007C000D9F477FF18C06DE264DF8C014427552708
:1007D000BA014C195D096E097F092AE0CE0183DF59
:1007E000800F911FDF91CF911F910F91FF90EF909C
:1007F000DF90CF9008952AE0B701A601CE01DF91E6
:10080000CF911F910F91FF90EF90DF90CF906BCF22
:100810009A01AB01662757FD6095762FB2CF4F92B4
:100820005F926F927F928F929F92AF92BF92CF9280
:10083000DF92EF92FF920F931F93CF93DF93EC0120
:100840006A017B01B22E9A01AB01C701B6010E9479
:10085000642A882319F06FE171E027C0260137016F
:10086000E89477F82FEF3FEF4FE75FE7C301B2015E
:100870000E94642A81110DC02FEF3FEF4FE75FE721
:10088000C301B2010E94E02718161CF463E271E074
:100890000CC02FEF3FEF4FE75FE4C701B6010E94A6
:1008A000AB291816A4F467E271E0CE01DF91CF9175
:1008B0001F910F91FF90EF90DF90CF90BF90AF907E
:1008C0009F908F907F906F905F904F90A9CE2FEF69
:1008D0003FEF4FE75FECC701B6010E94E02787FDBD
:1008E000E2CF20E030E0A901C701B6010E94E02775
:1008F00087FF09C06DE2CE01CCDE8C01F7FAF094DF
:10090000F7F8F09402C000E010E0A12C60E070E085
:1009100080E09FE3AB1441F020E030E040E251E49E
:100920000E94E727A394F6CF9B01AC01C701B60153
:100930000E9454276B017C010E9454282B013C012A
:100940000E9480289B01AC01C701B6010E94532779
:100950006B017C012AE0B301A201CE01C4DE080FC5
:10096000191FBB2031F06BE271E0CE0159DE080F98
:10097000191F7B2C772039F120E030E040E251E470
:10098000C701B6010E94B6296B017C010E944F2865
:100990004B01AA2497FCA094BA2C2AE030E0B501C0
:1009A000A401CE01EEDE080F191FC501B4010E949B
:1009B00082289B01AC01C701B6010E9453276B013D
:1009C0007C017A94D7CFC801DF91CF911F910F910D
:1009D000FF90EF90DF90CF90BF90AF909F908F905F
:1009E0007F906F905F904F90089519CF0895B9D080
:1009F000FDDFF9DBC0E3D1E002DC2097E9F330DC76
:100A0000FBCF1F920F920FB60F9211242F933F939B
:100A10008F939F93AF93BF938091720290917302D3
:100A2000A0917402B09175023091710223E0230FFE
:100A30002D3720F40196A11DB11D05C026E8230F16
:100A40000296A11DB11D20937102809372029093B2
:100A50007302A0937402B093750280917602909114
:100A60007702A0917802B09179020196A11DB11D83
:100A70008093760290937702A0937802B0937902E4
:100A8000BF91AF919F918F913F912F910F900FBE8A
:100A90000F901F9018952FB7F89460917202709183
:100AA000730280917402909175022FBF08953FB731
:100AB000F8948091760290917702A0917802B0919B
:100AC000790226B5A89B05C02F3F19F00196A11DFC
:100AD000B11D3FBF6627782F892F9A2F620F711D96
:100AE000811D911D42E0660F771F881F991F4A954F
:100AF000D1F708958F929F92AF92BF92CF92DF92DB
:100B0000EF92FF926B017C01D2DF4B015C01C114BB
:100B1000D104E104F104E1F05FD0C9DF681979097B
:100B20008A099B09683E73408105910580F321E0A5
:100B3000C21AD108E108F10888EE880E83E0981EF9
:100B4000A11CB11CC114D104E104F10431F7DFCFC1
:100B5000FF90EF90DF90CF90BF90AF909F908F90DD
:100B60000895789484B5826084BD84B5816084BD25
:100B700085B5826085BD85B5816085BDEEE6F0E016
:100B8000808181608083E1E8F0E010828081826072
:100B90008083808181608083E0E8F0E080818160F3
:100BA0008083E1EBF0E0808184608083E0EBF0E023
:100BB000808181608083EAE7F0E0808184608083C7
:100BC0008081826080838081816080838081806871
:100BD00080831092C1000895089561E086E00E942C
:100BE000702660E085E00C947026CF92DF92EF9241
:100BF000FF920F931F93CF93DF9300D0CDB7DEB753
:100C00006C018B017C0184E0E80EF11CC601698354
:100C10007A830E94A72CF80181938F01FFEFCF1AEE
:100C2000DF0A69817A81CE14DF0481F7CB010F904E
:100C30000F90DF91CF911F910F91FF90EF90DF9078
:100C4000CF900895EF92FF920F931F93CF93DF936E
:100C50001F92CDB7DEB77C01FC0100811181C80174
:100C600069830E94A72C6981681719F0C8010E9446
:100C7000AF2CC7010F90DF91CF911F910F91FF9083
:100C8000EF900895CF93DF93EC010E94AD1FCE014A
:100C900003960E94AD1FCE0106960E94AD1FCE01A5
:100CA00009960E94AD1F40E050E064EB72E44C876F
:100CB0005D876E877F87488B598B6A8B7B8B4C8BCC
:100CC0005D8B6E8B7F8B488F598F6A8F7B8F1C8ECD
:100CD0001D8E1E8E1F8E80E090E0A8E4B3E488A3F2
:100CE00099A3AAA3BBA380E090E0A8ECB2E48CA3F4
:100CF0009DA3AEA3BFA318A68FEF8BA71CA61DA60E
:100D00001EA61FA618AA19AA1AAA1BAA1DAA1CAABF
:100D1000FE01EA5FFC4F40E050E060E271E4408396
:100D20005183628373837496108231961082319658
:100D3000108231961082C25EDC4F19821882DF91D8
:100D4000CF910895613031F050F0623029F0633076
:100D500029F00895039603C0069601C009960C94E5
:100D600043204F925F926F927F928F929F92AF92A9
:100D7000BF92CF92DF92EF92FF92CF93DF93EC017D
:100D80005A017901FB0160817181828193819B010C
:100D9000AC010E94642A81111AC0F701C080D18081
:100DA000E280F380A7019601C701B6010E94642A80
:100DB00081110DC0F50180809180A280B380A501D2
:100DC0009401C501B4010E94642A882311F082E0D5
:100DD00060C0FE01E25FFC4F20813181428153817E
:100DE000C501B4010E9453272B013C0120E030E0F3
:100DF00040EA50E40E94E02787FD0AC020E030E08E
:100E000040EF52E4C301B2010E94AB29181614F45A
:100E100083E03FC0C65FDC4F288139814A815B8116
:100E2000C701B6010E9453272B013C0120E030E0AE
:100E300040EA50E40E94E02787FDEACF20E030E05E
:100E400040EF52E4C301B2010E94AB29181604F32B
:100E5000A501940160E070E084E393E40E945327CD
:100E6000A70196010E9453276B017C0120E030E02E
:100E700046E153E40E94AB29181654F220E030E01A
:100E800040EF51E4C701B6010E94E02787FDC0CFC3
:100E900081E0DF91CF91FF90EF90DF90CF90BF90F6
:100EA000AF909F908F907F906F905F904F9008953C
:100EB0002F923F924F925F926F927F928F929F926A
:100EC000AF92BF92CF92DF92EF92FF920F931F9358
:100ED000CF93DF93CDB7DEB728970FB6F894DEBF78
:100EE0000FBECDBF9E838D832A013B0109831A83E8
:100EF0002B833C83150198868F8220E030EC4CE4F4
:100F000055ECC301B2010E94E02787FD12C020E02A
:100F100030EC4CE455E4C301B2010E94AB29181631
:100F20007CF4412C30EC532E3CE4632E35E4732EDC
:100F300007C0412C20EC522E2CE4622E25EC722EA0
:100F400020E030EC4CE455EC69817A818B819C8106
:100F50000E94E02787FD11C020E030EC4CE455E40E
:100F600069817A818B819C810E94AB2918166CF46F
:100F700080E090ECACE4B5E404C080E090ECACE43C
:100F8000B5EC89839A83AB83BC8320E030EC4CE4DE
:100F900055ECC701B6010E94E02787FD12C020E092
:100FA00030EC4CE455E4C701B6010E94AB29181699
:100FB0007CF4C12C90ECD92E9CE4E92E95E4F92E1A
:100FC00007C0C12C80ECD82E8CE4E82E85ECF82EDE
:100FD00020E030E040E251E4C301B2010E94B629B2
:100FE0000E944F28882777FD8095982F0E9482289D
:100FF00020E030E040E251E40E94E7272B013C0171
:1010000020E030E040E251E469817A818B819C816B
:101010000E94B6290E944F28882777FD8095982F37
:101020000E94822820E030E040E251E40E94E7275D
:101030004B015C0120E030E040E251E4C701B60121
:101040000E94B6290E944F28882777FD8095982F07
:101050000E94822820E030E040E251E40E94E7272D
:1010600020E030E044EB52E40E94532720E030E4DB
:1010700044E153E40E94E7276B017C01AD81BE810E
:1010800098968C91811109C020E030E0A901C5013A
:10109000B4010E94E02787FD38C120E030E0A901BB
:1010A000C301B2010E94E02781110AC080E090E0F4
:1010B000A4EBB2E4F10180839183A283B3833FC0A8
:1010C00020E030E0A901C301B2010E94AB2918164B
:1010D000A4F4A3019201C501B4010E94E7270E9474
:1010E000B82726EE3EE245E652E40E94B629D10139
:1010F0006D937D938D939C93139720E030E0A9012D
:10110000C301B2010E94E02787FF19C0A301920129
:10111000C501B4010E94E7270E94B82726EE3EE2EF
:1011200045E652E40E94B62920E030E044E353E46F
:101130000E945427F1016083718382839383D101DC
:101140008D919D910D90BC91A02D89839A83AB8345
:10115000BC8320E030E044EB52E4BC01CD010E94AE
:10116000E0278823B9F026EE3EE245E652E46981A5
:101170007A818B819C810E94E7270E94E4279B0152
:10118000AC01C301B2010E94E72729E23CE549EA2C
:1011900051E406C029E23CE549EA51E4C501B40145
:1011A0000E94532720E030E048EC51E40E9453278E
:1011B00020E030E444E153E40E94E7274B015C0166
:1011C0009B01AC01C701B6010E94E7270E94B82726
:1011D00026EE3EE245E652E40E94B6292B013C0190
:1011E000A7019601C701B6010E94B6296B017C01D7
:1011F000A5019401C501B4010E94B6299B01AC016F
:10120000C701B6010E9454270E94232A6B017C016A
:101210009B01AC010E94B6294B015C0123E937E731
:1012200045E95FE30E94542720E030E040E85FE3B7
:101230000E94532769837A838B839C8325E531E55C
:101240004AE050E4C701B6010E94B6299B01AC01F7
:1012500069817A818B819C810E94E7270E944527C2
:1012600026EE3EE245E652E40E94B629ED8DFE8D63
:10127000608371838283938320E030E040E85FE302
:10128000C501B4010E94542723E937E745E95FE32C
:101290000E9453274B015C01A7019601C701B601CB
:1012A0000E9454279B01AC01C501B4010E94E727AD
:1012B0000E94452726EE3EE245E652E40E94B6290A
:1012C000A30192010E945427AF81B8856D937D934D
:1012D0008D939C931397A3019201ED8DFE8D6081F8
:1012E0007181828193810E945327AD8DBE8D6D9354
:1012F0007D938D939C9313970F8D9D014F815885FE
:10130000B1018D819E812DDD01C082E028960FB64E
:10131000F894DEBF0FBECDBFDF91CF911F910F912B
:10132000FF90EF90DF90CF90BF90AF909F908F9005
:101330007F906F905F904F903F902F9008950F9304
:101340001F93CF93DF93890184E0689FE00111240C
:10135000BA01CE018A5B9F4F48DCB801CE01C2962C
:10136000DF91CF911F910F9140CC0F931F93CF939B
:10137000DF93CDB7DEB728970FB6F894DEBF0FBE68
:10138000CDBF8B01642F1D821E821F821886198299
:101390001A821B821C829E012F5F3F4FAE014B5F62
:1013A0005F4FCDDFB801882777FD8095982F0E9489
:1013B000822829813A814B815C810E94B6292D8146
:1013C0003E814F8158850E94542728960FB6F89485
:1013D000DEBF0FBECDBFDF91CF911F910F9108955A
:1013E0006F927F928F929F92AF92BF92CF92DF9235
:1013F000EF92FF920F931F93CF93DF93CDB7DEB79A
:1014000061970FB6F894DEBF0FBECDBF4C01F42E2E
:10141000613089F160F1623091F1633099F583E0D8
:101420000E94F125BC01882777FD8095982F1F9297
:101430001F921F9224EB2F93A12CB12C65011CEC61
:10144000E12EFF24F39400E010E022E630E040E0DB
:1014500050E00E94F8230E948228F401608F718F6F
:10146000828F938F0F900F900F900F900AC18C0175
:10147000045F1F4F07C08C01005F1F4F03C08C012A
:101480000C5E1F4FCE0101966C013E0191E1690E89
:10149000711C5601613039F020F0623061F481E056
:1014A00003C082E001C080E0698B0E94F125F60153
:1014B000918380836989F2E0CF0ED11CC614D704D2
:1014C00049F780E090E070E0E72FF0E09C012E0FFC
:1014D0003F1F27303105C4F4DF01AA0FBB1FAA0D3F
:1014E000BB1D2D913C9111973196EE0FFF1FEA0D18
:1014F000FB1D408151814217530720F44D935C93AB
:10150000318320837F5FE0CF019688309105D9F643
:10151000613011F120F0623009F43BC057C06F8197
:1015200078858D819E81680F791F89859A85680FDE
:10153000791F8B859C85680F791F769567957695C1
:10154000679540E0C40111DFF801608371838283F5
:101550009383F1105BC095C06F8178858D819E81EA
:10156000680F791F89859A85680F791F8B859C85FF
:10157000680F791F769567957695679541E0C40168
:10158000F4DEF8016083718382839383F11052C08B
:1015900078C06F8178858D819E81680F791F8985DC
:1015A0009A85680F791F8B859C85680F791F7695C2
:1015B00067957695679542E0C401D7DEF8016083B0
:1015C000718382839383F11049C05BC0FF2009F4CB
:1015D00058C0613079F1D0F0623009F43FC0633017
:1015E00009F04FC0F401EA5EFC4F20813181428155
:1015F0005381F401608D718D828D938D0E945327EC
:10160000F401608F718F828F938F3BC0F401EE5E87
:10161000FC4F2081318142815381F40164857585BD
:10162000868597850E945327F4016487758786878E
:10163000978727C0F401E25FFC4F2081318142810E
:101640005381F40160897189828993890E945327AB
:10165000F401608B718B828B938B13C0F401E65F76
:10166000FC4F2081318142815381F4016489758965
:10167000868997890E945327F401648B758B868B2A
:10168000978B61960FB6F894DEBF0FBECDBFDF918A
:10169000CF911F910F91FF90EF90DF90CF90BF906F
:1016A000AF909F908F907F906F90089540E098CE7C
:1016B000EF92FF920F931F93CF93DF931F92CDB7BB
:1016C000DEB77C018BE090E069830E94A72C6981E2
:1016D000803809F06FC06130E1F030F0623081F1A4
:1016E000633009F443C066C082E00E94F125C397CD
:1016F0000CF460C06BE070E0C7010E943E2060E027
:10170000C701D4DFF7014485558566857785C70114
:1017100048C080E00E94F125C3970CF44BC08701BC
:101720000D5F1F4F6DE070E0C8010E943E2061E038
:10173000C701BCDFF701408951896289738930C0D4
:1017400081E00E94F125C397ACF187010A5F1F4F2A
:101750006CE070E0C8010E943E2062E0C701A6DF95
:10176000F70144895589668977891AC083E00E9408
:10177000F12585369105F4F08701075F1F4F20E6BC
:1017800039E048E552E06AE070E0C8010E94C61FF7
:1017900063E0C7018BDFF701408D518D628D738D42
:1017A000C8010F90DF91CF911F910F91FF90EF90A3
:1017B0000C9480200F90DF91CF911F910F91FF909B
:1017C000EF900895CF93DF93EC0160E06FDF61E06D
:1017D000CE016CDF62E0CE0169DF63E0CE01DF9114
:1017E000CF9164CFCF93DF9300D000D0CDB7DEB7D9
:1017F00019821A821B821C8224E0629FC00111247C
:10180000BE016F5F7F4F4E96F0D969817A818B81DF
:101810009C810F900F900F900F90DF91CF910895C2
:10182000CF93DF93EC018AE090E00E94A72C8038F0
:1018300081F020E030E0A90168EE73E083E00E94CF
:10184000662168EE73E080E090E054D983E00E9466
:101850008A2362E084E00E94372661E083E00E94F0
:10186000372662E082E00E94372662E087E00E942D
:10187000372661E086E00E94372661E085E00E941D
:10188000372661E089E00E94372661E0CE01AADFB9
:10189000FE01E25FFC4F608371838283938362E089
:1018A000CE01A0DFFE01E65FFC4F6083718382837F
:1018B000938360E0CE0196DFFE01EE5EFC4F608315
:1018C00071838283938363E0CE018CDFFE01EA5E45
:1018D000FC4F608371838283938368EE73E080E0C2
:1018E00090E008D960E0CE01E3DE61E0CE01E0DE09
:1018F00062E0CE01DDDE63E0CE01DF91CF91D8CE94
:10190000CF92DF92EF92FF920F931F93CF93DF93CB
:10191000EC01162F69017A01002349F063DF9B0176
:10192000AC01C701B6010E9454276B017C01113044
:1019300071F048F0123081F01330E1F4B701A601E4
:10194000CE0109960DC0B701A601CE0109C0B701AD
:10195000A601CE01039604C0B701A601CE010696EA
:10196000DF91CF911F910F91FF90EF90DF90CF907B
:101970000C948020DF91CF911F910F91FF90EF90F9
:10198000DF90CF9008950F9300E0BADF0F91089594
:101990008F929F92AF92BF92CF92DF92EF92FF927F
:1019A0000F931F93CF93DF93EC01480159019A01E4
:1019B000AB0160E0E8DFA501940161E0CE01E3DF67
:1019C000A701960162E0CE01DEDFDF91CF911F918A
:1019D0000F91FF90EF90DF90CF90BF90AF909F90CE
:1019E0008F9008952F923F924F925F926F927F92C5
:1019F0008F929F92AF92BF92CF92DF92EF92FF921F
:101A00000F931F93CF93DF93CDB7DEB72A970FB60F
:101A1000F894DEBF0FBECDBF9A8789871B014A01AC
:101A20003A832983FE82ED82D886CF82A110CADE56
:101A300026EE3EE245E652E4F40160817181828146
:101A400093810E94E7274B015C010E94E4272B0150
:101A50003C0126EE3EE245E652E4E981FA816081EE
:101A60007181828193810E94E7276B017C010E9432
:101A7000E42769837A838B839C8320E030E444E10C
:101A800053E4C301B2010E94B6292B013C0123E3B8
:101A900033E340E253E469817A818B819C810E9427
:101AA000B6299B01AC01C301B2010E94542729E26F
:101AB0003CE549EA51E40E9454272B013C01C50151
:101AC000B4010E94192A4B015C01C701B6010E94B2
:101AD000192A6B017C0126EE3EE245E652E4F10153
:101AE00060817181828193810E94E7270E94E427AF
:101AF0009B01AC01C301B2010E94B629F8016083C9
:101B000071838283938326EE3EE245E652E4F1013F
:101B100060817181828193810E94E7270E94192A46
:101B20009B01AC01C301B2010E94B629ED81FE8187
:101B3000608371838283938320E030E444E153E443
:101B4000C501B4010E94B6294B015C0123E333E3D4
:101B500040E253E4C701B6010E94B6299B01AC01E3
:101B6000C501B4010E94532720E030E044EB52E469
:101B70000E945427EF81F885608371838283938369
:101B8000E985FA85E35EFC4F81E080832A960FB6F3
:101B9000F894DEBF0FBECDBFDF91CF911F910F91A3
:101BA000FF90EF90DF90CF90BF90AF909F908F907D
:101BB0007F906F905F904F903F902F9008952F925D
:101BC0003F924F925F926F927F928F929F92AF92CD
:101BD000BF92CF92DF92EF92FF920F931F93CF931A
:101BE000DF93CDB7DEB72C970FB6F894DEBF0FBEEC
:101BF000CDBF6C01CB01BA0128013901FE82ED8213
:101C000020E030E040E251E40E94E7274B015C0114
:101C100020E030E040E251E4C301B2010E94E72736
:101C2000A50194010E94532769837A838B839C8347
:101C3000D60199962D903C909A9711E0C101A0E0B1
:101C4000B0E08F839887A987BA87612E712C2614FC
:101C5000370408F45AC0612F70E080E090E00E94E1
:101C600080286B017C016F81788589859A850E9427
:101C700080289B01AC01C701B6010E94E7276B01D8
:101C80007C01D301A150B04CAA0FBB1FAA0FBB1FF0
:101C9000ED81FE81AE0FBF1FBC87AB87A701960108
:101CA000C701B6010E94B62929813A814B815C8126
:101CB0000E94B6292B013C0120E030E040E050ECCE
:101CC000C701B6010E94B62920E030E040E450E4AC
:101CD0000E9454279B01AC01C301B2010E94B629A6
:101CE0009B01AC01C501B4010E94542720E030E003
:101CF00040E251E40E94B629AB85BC856D937D938B
:101D00008D939C9313971F5FA0CF2C960FB6F894DA
:101D1000DEBF0FBECDBFDF91CF911F910F91FF901E
:101D2000EF90DF90CF90BF90AF909F908F907F907B
:101D30006F905F904F903F902F9008952F923F9219
:101D40004F925F926F927F928F929F92AF92BF92CB
:101D5000CF92DF92EF92FF920F931F93CF93DF9377
:101D6000CDB7DEB7E0970FB6F894DEBF0FBECDBF9C
:101D70001C014B8F5C8F6D8F7E8F0F8F18A329A353
:101D80003AA3CBA2DCA2EDA2FEA22B964FAC2B97DE
:101D90008BE090E00E94A72C803899F020E030E0A2
:101DA000A90160E177E283E00E94662162E370E0CE
:101DB00080E090E00E947A0583E00E948A238FEF02
:101DC000D7C22D968FAD2D97882361F126EE3EE286
:101DD00045E652E46F8D78A189A19AA10E94E72778
:101DE0004B015C010E94E4279B01AC016B8D7C8D53
:101DF0008D8D9E8D0E94B6296B017C01C501B401B9
:101E00000E94192A9B01AC016B8D7C8D8D8D9E8D5E
:101E10000E94B6296F8F78A389A39AA3CB8EDC8EFC
:101E2000ED8EFE8E26968FAD2697813071F5D1010D
:101E30005C96CD90DD90ED90FC905F97A7019601A8
:101E40006B8D7C8D8D8D9E8D0E9454276B8F7C8F2A
:101E50008D8F9E8FA70196016F8D78A189A19AA180
:101E60000E9454276F8F78A389A39AA3F10124A11C
:101E700035A146A157A16BA17CA18DA19EA10E9475
:101E800054276BA37CA38DA39EA31F92CE010D9616
:101E90009F938F9304964C01DE0155965D01CBA074
:101EA000DCA0EDA0FEA00F8D18A129A13AA14B8DB9
:101EB0005C8D6D8D7E8DC1010E9458070F900F9033
:101EC0000F90813041F0F10190A5992309F44FC2A0
:101ED000823009F41DC2D1011C962D913D914D9186
:101EE0005C911F976D897E898F89988D0E945327F9
:101EF0006B017C0120E030E0A9010E94AB2918169B
:101F00001CF4C701B60103C0C701B60190580E9476
:101F100054288B01F10120893189428953896989CB
:101F20007A898B899C890E9453276B017C0120E070
:101F300030E0A9010E94AB2918161CF4C701B601B4
:101F400003C0C701B60190580E945428B62EA72E90
:101F5000D10154962D913D914D915C9157976D858E
:101F60007E858F8598890E9453276B017C0120E034
:101F700030E0A9010E94AB2918161CF4C701B60174
:101F800003C0C701B60190580E9454288B2D9A2D8A
:101F90008017910708F4C8018617970708F4CB014A
:101FA0008D33910510F08CE390E0F10192A781A7A9
:101FB00020E030E048EC52E42A966CAD7DAD8EAD69
:101FC0009FAD2A970E94E02787FD13C020E030E0F4
:101FD0004AE754E42A966CAD7DAD8EAD9FAD2A974D
:101FE0000E94AB2918167CF480E090E0AAE7B4E4E4
:101FF00004C080E090E0A8ECB2E42A968CAF9DAFDC
:10200000AEAFBFAF2A97F101EA5FFC4F2A968CADC5
:102010009DADAEADBFAD2A9780839183A283B3837C
:10202000D101D696B8A7AFA3F101448D558D668D29
:10203000778DC42C7D010B8D1C8D2D8D3E8DC101A6
:10204000BEDDC1018A5D9E4F9AA789A7D1019096F6
:102050004D915D916D917C9193977C010F8D18A1AD
:1020600029A13AA1C101ABDDF101EA5EFD4FFCA758
:10207000EBA7D10194964D915D916D917C919797CD
:102080007F010BA11CA12DA13EA1C10198DD512C06
:10209000FE013196FA8FE98F652C712CD10199964A
:1020A0008D919C919A976816790608F054C0660C39
:1020B000771C660C771C620C731CC3018A5E9D4FF3
:1020C0009EA78DA7DC01CD90DD90ED90FC90F301F3
:1020D000EA5DFE4FF8ABEFA70081118122813381C9
:1020E000D301D6964D915D916D917C91D997B1E0D8
:1020F000BF93EA8DEF93F98DFF93CE0105964C01C6
:10210000DE0119965D01C1010E9458070F900F90E2
:102110000F908130F9F489859A85AB85BC85F301F0
:1021200086AB97ABA0AFB1AF8D819E81AF81B885F3
:10213000EFA5F8A980839183A283B38389819A81D3
:10214000AB81BC81EDA5FEA580839183A283B3837F
:102150005394A2CF512C4101B3EE8B1ABCEF9B0AD2
:10216000A52CB12CD10199968D919C919A97A81686
:10217000B90608F04EC051102AC00D891E892F895A
:10218000388DF1014485558566857785C42CEFA08F
:10219000F8A4C10114DD09891A892B893C89D10170
:1021A00050964D915D916D917C915397E9A4FAA45D
:1021B000C10105DD0D851E852F853889F101448912
:1021C000558966897789EBA4FCA4C101F8DCF4E0A9
:1021D0005F9EB00111249B012A5E3D4F220D331DED
:1021E000AB014A5D5E4F420D531D6A5C7F4F620D2D
:1021F000731D01E0C1010E94B106813041F0D4019C
:102200008C91811104C0F101B2A6A1A602C0539421
:10221000A7CFF101248D358D468D578D6B8D7C8D2B
:102220008D8D9E8D0E9453272B013C01D1019096EC
:102230002D913D914D915C9193976F8D78A189A1DE
:102240009AA10E9453274B015C01F10124A135A101
:1022500046A157A16BA17CA18DA19EA10E945327ED
:102260006B017C01A3019201C301B2010E94B62956
:102270002B013C01A5019401C501B4010E94B629BE
:102280009B01AC01C301B2010E9454274B015C01C8
:10229000A7019601C701B6010E94B6299B01AC01B6
:1022A000C501B4010E9454270E94232A6B017C01BE
:1022B0000E944B05D101D0966D937D938D939C9395
:1022C000D3972A962CAD3DAD4EAD5FAD2A97C70191
:1022D000B6010E94E72720E030E04AE754E40E947C
:1022E000B6296B017C01F10161A572A580E090E047
:1022F0000E9480289B01AC01C701B6010E94E7271C
:102300000E945428D101D5967C936E93D49703C034
:10231000F10112A611A6D10199968D919C919A97DF
:10232000892B01F18B8D9C8DAD8DBE8DF101848F3C
:10233000958FA68FB78F8F8D98A1A9A1BAA180A3E1
:1023400091A3A2A3B3A38BA19CA1ADA1BEA184A381
:1023500095A3A6A3B7A3E35EFC4F1082D1019B9681
:102360001C9203C08FEFF10183A781E001C083E0DD
:10237000E0960FB6F894DEBF0FBECDBFDF91CF91D0
:102380001F910F91FF90EF90DF90CF90BF90AF9093
:102390009F908F907F906F905F904F903F902F9085
:1023A000089561110C94ED0560E086E00E947026AE
:1023B00061E085E00C947026CF92DF92EF92FF925D
:1023C0000F931F93CF93DF93D42FC52F122FC32EBC
:1023D000662319F067EF70E002C064EF70E084EDEF
:1023E00091E00E942603D12EED2EFC2EC12FDC2D74
:1023F0008C2F8D19801790F4699184ED91E00E94E3
:102400004903F70141915191619171917F0122E05E
:1024100030E084ED91E00E94F504EACF62EF70E0D5
:1024200084ED91E0DF91CF911F910F91FF90EF909C
:10243000DF90CF900C945303CF92DF92EF92FF92F4
:1024400069017A01662319F06FEE70E002C06CEE4C
:1024500070E084ED91E00E94260322E030E0B701B5
:10246000A60184ED91E00E94F5046AEE70E084ED2F
:1024700091E0FF90EF90DF90CF900C945303CF93B7
:10248000DF93EA01662319F067EE70E002C064EEA4
:1024900070E084ED91E00E9426034AE050E0BE0126
:1024A00084ED91E00E94080462EE70E084ED91E01A
:1024B000DF91CF910C9453032F923F924F925F92F2
:1024C0006F927F928F929F92AF92BF92CF92DF9244
:1024D000EF92FF920F931F93CF93DF9300D000D022
:1024E00000D0CDB7DEB77B014A015901312C29015B
:1024F00081E0481A5108C32CD12CCA14DB040CF01B
:1025000048C034016C0C7D1CF3016081C7010E943E
:10251000A12522242394280EFFEF2F1203C06FED74
:1025200070E00CC0C414D50479F0F3016181C701D7
:102530000E94A1258F3F59F46CED70E084ED91E08D
:102540000E94530381E026C0F70184818150CC0CA6
:10255000DD1CCC0CDD1CC00ED11E282F332727FD1F
:102560003095422D552747FD5095B701CE01019674
:102570000E94A425CE0101960E94E725F601608302
:10258000718382839383CE0101960E943D2433940C
:10259000B2CF80E026960FB6F894DEBF0FBECDBF57
:1025A000DF91CF911F910F91FF90EF90DF90CF902F
:1025B000BF90AF909F908F907F906F905F904F9063
:1025C0003F902F9008954F925F926F927F928F92DB
:1025D0009F92AF92BF92CF92DF92EF92FF920F93B2
:1025E0001F93CF93DF93CDB7DEB7AE970FB6F894B6
:1025F000DEBF0FBECDBF3C012B0125E030E041E046
:1026000050E0CE0147960E94A4256DE271E0CE0114
:1026100047960E9468258823C1F188E58D8F89E55A
:102620008E8F8AE58F8F86E588A3B201CE01419611
:102630000E9403258E010F5F1F4F24E030E0AE01A2
:10264000435E5F4FBE016F5E7F4FC30135DF182FC2
:10265000CE0141960E943D24111129C162E371E02F
:1026600084ED91E00E94630381E0F30180A7C984B7
:10267000DA84EB84FC840D811E812F8138854981A9
:102680005A816B817C811F9240C066E371E0CE016C
:1026900047960E946825882309F44FC083E58D8FF3
:1026A00082E58E8F88E48F8F86E588A3B201CE0104
:1026B00041960E9403258E010F5F1F4F24E030E0FA
:1026C000AE01435E5F4FBE016F5E7F4FC301F4DE1C
:1026D000182FCE0141960E943D241111E8C062E3FB
:1026E00071E084ED91E00E94630381E0F30180A733
:1026F000C984DA84EB84FC840D811E812F813885A6
:1027000049815A816B817C818F938F931F92888935
:102710008F938F858F938E858F938D858F931F9247
:10272000812C912C5401C30109DBF30110A60FB6D3
:10273000F894DEBF0FBECDBFBAC06BE371E0CE012F
:1027400047960E946825882309F43EC08EE48D8F49
:10275000B201CE0141960E9403258E010F5F1F4FEB
:1027600021E030E0AE01435E5F4FBE016F5E7F4F00
:10277000C301A2DE182FCE0141960E943D24111103
:1027800096C062E371E084ED91E00E946303698189
:102790007A818B819C810E945428C3010E94580B2E
:1027A000C3010E940721882309F481C0C301039655
:1027B0000E940721882309F47AC0C30106960E946B
:1027C0000721811105C673C060E471E0CE01479610
:1027D0000E946825882359F18EE48D8FB201CE01C5
:1027E00041960E9403258E010F5F1F4F21E030E0CC
:1027F000AE01435E5F4FBE016F5E7F4FC3015CDE83
:10280000182FCE0141960E943D24111150C062E361
:1028100071E084ED91E00E94630369817A818B818C
:102820009C810E945428C3010E94A20640C065E416
:1028300071E0CE0147960E9468258823C1F18EE49D
:102840008D8F86E58E8FB201CE0141960E940325C1
:102850008E010F5F1F4F22E030E0AE01435E5F4FFD
:10286000BE016F5E7F4FC30127DE182FCE01419658
:102870000E943D2411111BC062E371E084ED91E0E0
:102880000E9463032D813E814F81588569817A8141
:102890008B819C812BA73CA74DA75EA70E94542843
:1028A00000E02BA53CA54DA55EA5C30129D86AE48F
:1028B00071E0CE0147960E9468258823D1F18EE40D
:1028C0008D8F86E58E8FB201CE0141960E94032541
:1028D0008E010F5F1F4F22E030E0AE01435E5F4F7D
:1028E000BE016F5E7F4FC301E7DD182FCE01419619
:1028F0000E943D24111151C562E371E084ED91E025
:102900000E9463032D813E814F81588569817A81C0
:102910008B819C812BA73CA74DA75EA70E945428C2
:1029200001E02BA53CA54DA55EA5C3010E94800C2E
:1029300034C56FE471E0CE0147960E946825882374
:1029400099F186E58D8FB201CE0141960E94032553
:102950008E010F5F1F4F21E030E0AE01435E5F4FFD
:10296000BE016F5E7F4FC301A7DD182FCE014196D8
:102970000E943D24111111C562E371E084ED91E0E4
:102980000E94630320E030E0A90169817A818B8194
:102990009C810E94E027811104C060E0C30101DD39
:1029A000FCC40E94ED05F9C464E571E0CE014796D0
:1029B0000E946825882399F186E58D8FB201CE01AA
:1029C00041960E9403258E010F5F1F4F21E030E0EA
:1029D000AE01435E5F4FBE016F5E7F4FC3016CDD92
:1029E000182FCE0141960E943D241111D6C462E3F6
:1029F00071E084ED91E00E94630320E030E0A901E2
:102A000069817A818B819C810E94E027811102C0BB
:102A100061E001C060E089E00E947026BEC469E503
:102A200071E0CE0147960E946825882309F44EC0C4
:102A300086E48D8F84E58E8FB201CE0141960E948F
:102A400003258E010F5F1F4F22E030E0AE01435E91
:102A50005F4FBE016F5E7F4FC3012EDD182FCE0189
:102A600041960E943D24111198C462E371E084ED07
:102A700091E00E94630369817A818B819C810E942D
:102A8000542820E030E0A90183E00E9466210E94E2
:102A90004B056B017C0120E030E04AE754E46D8196
:102AA0007E818F8198850E94B6290E944F28CB0194
:102AB000AA2797FDA095BA2F8C0D9D1DAE1DBF1D99
:102AC000F30184A795A7A6A7B7A767C46EE571E031
:102AD000CE0147960E946825882351F062E371E099
:102AE00084ED91E00E9463038FEFF30183A755C447
:102AF00063E671E0CE0147960E946825882319F0AD
:102B000068E671E081C465E771E0CE0147960E94F6
:102B10006825882309F460C088E58D8F89E58E8F4C
:102B20008AE58F8FB201CE0141960E9403258E0166
:102B30000F5F1F4F23E030E0AE01435E5F4FBE01E9
:102B40006F5E7F4FC301B8DC182FCE0141960E9403
:102B50003D24111122C4F30110A6BB24B39420E03C
:102B600030E040E85FE36D857E858F8598890E941F
:102B7000E0278111B12C8FEFF30183A7C984DA8498
:102B8000EB84FC840D811E812F81388549815A8117
:102B90006B817C81BF921F921F928FE38F9380E89D
:102BA0008F931F921F921F92812C912C5401C3016D
:102BB000C5D80FB6F894DEBF0FBECDBF823049F046
:102BC000833021F0813009F0E8C32DC26FE771E056
:102BD0001BC464E871E018C469E871E0CE0147964F
:102BE0000E946825882369F1630134E2C30ED11C79
:102BF000730180E2E80EF11C8301045E1F4F930114
:102C00002C5E3F4FA301405F5F4FB301645F7F4F76
:102C1000AA24A394C3010E94F20C88E5898B89E55C
:102C20008A8B8AE58B8BF301848D958DA68DB78D6C
:102C300089839A83AB83BC8380A191A1A2A1B3A114
:102C40004EC06EE871E0CE0147960E946825882349
:102C500009F45CC06301F4E2CF0ED11C730120E2E1
:102C6000E20EF11C8301045E1F4F93012C5E3F4F67
:102C7000A301405F5F4FB301645F7F4FAA24A39419
:102C8000C3010E94F20CF301648D758D868D978DC2
:102C9000C0A0D1A0E2A0F3A09B01AC010E94B62984
:102CA0004B015C01A7019601C701B6010E94B6293C
:102CB0009B01AC01C501B4010E9454270E94232A44
:102CC00023E5298B22E52A8B28E42B8B69837A83E1
:102CD0008B839C83F30184859585A685B7858D8339
:102CE0009E83AF83B88784A195A1A6A1B7A1898748
:102CF0009A87AB87BC8703E09E012F5E3F4FAE01F2
:102D00004F5F5F4F61E0C30157DB47C363E971E089
:102D1000CE0147960E946825882369F1C3010E946D
:102D2000E20B82E4898B8CE48A8B82E58B8B88E4CE
:102D30008C8BF30184859585A685B78589839A83D5
:102D4000AB83BC8380899189A289B3898D839E835B
:102D5000AF83B88784899589A689B78989879A8737
:102D6000AB87BC87808D918DA28DB38D8D879E871B
:102D7000AF87B88B46C068E971E0CE0147960E94E4
:102D80006825882309F43FC040E060E0C3010E9449
:102D9000F00940E061E0C3010E94F00940E062E018
:102DA000C3010E94F00940E063E0C3010E94F00902
:102DB000F30184859585A685B78589839A83AB833E
:102DC000BC8380899189A289B3898D839E83AF83D7
:102DD000B88784899589A689B78989879A87AB87B7
:102DE000BC87808D918DA28DB38D8D879E87AF8797
:102DF000B88B82E4898B8CE48A8B82E58B8B88E4A8
:102E00008C8B04E079CF6DE971E0CE0147960E948A
:102E10006825882309F482C088E588A789E589A701
:102E20008AE58AA75E01F1E1AF0EB11CB201C501CE
:102E30000E9403258E010F5F1F4F23E030E0AE019B
:102E4000485D5F4FB501C30137DB182FC5010E94F4
:102E50003D241111A2C2F30110A6C984DA84EB84C7
:102E6000FC840D811E812F81388549815A816B81B7
:102E70007C811F92BF92AF92CE014D964C01FE0114
:102E8000B1965F01C3010E9458070F900F900F90F9
:102E9000813021F5F301E25FFC4F208131814281D5
:102EA00053816D8D7E8D8F8D98A10E9453276D8FDC
:102EB0007E8F8F8F98A3F301E65FFC4F20813181D5
:102EC0004281538169897A898B899C890E94532721
:102ED000698B7A8B8B8B9C8B61E001C060E084E511
:102EE0008DA38CE48EA382E58FA389A19AA1ABA1C7
:102EF000BCA189839A83AB83BC838D8D9E8DAF8D5E
:102F0000B8A18D839E83AF83B88789899A89AB895D
:102F1000BC8989879A87AB87BC8760C062EA71E009
:102F2000CE0147960E946825882309F45FC084E596
:102F300088A78CE489A782E58AA7B201CE014196D1
:102F40000E9403258E010F5F1F4F23E030E0AE018A
:102F5000485D5F4FBE016F5E7F4FC301ADDA182F32
:102F6000CE0141960E943D24111117C2A12C9E0151
:102F70002F5E3F4F6901CE014D967C018E010F5DA2
:102F80001F4F28503109AE014B5F5F4FBE016F5F8D
:102F90007F4FC3010E94F20C98E59DA399E59EA383
:102FA0009AE59FA349A15AA16BA17CA149835A83A9
:102FB0006B837C834D8D5E8D6F8D78A14D835E8399
:102FC0006F83788749895A896B897C8949875A87B1
:102FD0006B877C8761E0833009F460E003E09E0149
:102FE0002B5D3F4FAE014F5F5F4F8DCE67EA71E0C3
:102FF000CE0147960E946825882341F0F30183A5FE
:103000008F3F09F4FFC162E371E0FEC16CEA71E039
:10301000CE0147960E946825882359F082E00E94DD
:10302000A526892B19F06AE771E0EEC161EB71E02A
:10303000EBC166EB71E0CE0147960E9468258823BC
:1030400029F18EE48D8FB201CE0141960E940325B5
:103050008E010F5F1F4F21E030E0AE01435E5F4FF6
:10306000BE016F5E7F4FC30127DA182FCE01419654
:103070000E943D24111191C169817A818B819C81CB
:103080000E945428862F0E94A52676C06BEB71E023
:10309000CE0147960E946825882309F441C08EE43A
:1030A0008D8F86E58E8FB201CE0141960E94032559
:1030B0008E010F5F1F4F22E030E0AE01435E5F4F95
:1030C000BE016F5E7F4FC301F7D9182FCE01419625
:1030D0000E943D24111161C162E371E084ED91E031
:1030E0000E94630320E030E040E85FE36D817E8171
:1030F0008F8198850E94E027811109C069817A81BA
:103100008B819C810E945428862F61E085CC698147
:103110007A818B819C810E945428862F60E07CCC30
:1031200060EC71E0CE0147960E946825882331F15A
:103130008EE48D8FB201CE0141960E9403258E014F
:103140000F5F1F4F21E030E0AE01435E5F4FBE01D5
:103150006F5E7F4FC301B0D9182FCE0141960E94F8
:103160003D2411111AC169817A818B819C810E9451
:103170005428862F0E94F125AC0157C065EC71E000
:10318000CE0147960E946825882309F46BC081E42C
:103190008D8F84E58E8FB201CE0141960E9403256A
:1031A0008E010F5F1F4F22E030E0AE01435E5F4FA4
:1031B000BE016F5E7F4FC3017FD9182FCE014196AC
:1031C0000E943D241111E9C06D817E818F81988517
:1031D0000E944F286230710599F06430710549F101
:1031E0006130710509F0D9C069817A818B819C8138
:1031F0000E944F28CB010E94A72C482F50E015C0F9
:103200001A8A198A69817A818B819C810E944F2850
:103210006B017C01CB010E94A72C898BC601019612
:103220000E94A72C8A8B49895A8961E0C30127D95A
:10323000B4C0198A1A8A1B8A1C8A69817A818B8197
:103240009C810E944F28DC01CB01BE016F5E7F4F45
:103250000E94F50529893A894B895C8961E0C3019F
:10326000EBD89BC06AEC71E0CE0147960E946825BE
:10327000882309F492C081E48D8F84E58E8F86E5E2
:103280008F8FB201CE0141960E9403258E010F5F00
:103290001F4F23E030E0AE01435E5F4FBE016F5E23
:1032A0007F4FC30109D9182FCE0141960E943D24BA
:1032B000111173C062E371E084ED91E00E94630339
:1032C0006D817E818F8198850E944F2862307105C3
:1032D000D1F064307105D1F16130710509F05DC044
:1032E00069857A858B859C850E945428162F698173
:1032F0007A818B819C810E944F28DC01CB01612F58
:103300000E94AF2C4AC069857A858B859C850E9476
:103310004F28162F7AA369A369817A818B819C81BA
:103320000E944F286B017C01612FDA8AC98ACE0185
:1033300041960E9422066AA1FFEFCF1ADF0ADA8ABD
:10334000C98ACE0141960E94220627C089859A85A6
:10335000AB85BC85898B9A8BAB8BBC8B69817A8161
:103360008B819C810E944F287B016E0125E1C20E5A
:10337000D11C8E010F5E1F4FE01AF10AC701800FAA
:10338000911FF80161918F019AA389A3CE018196C3
:103390000E9422060C151D0589F7CE0147960E9452
:1033A0003D24AE960FB6F894DEBF0FBECDBFDF91C1
:1033B000CF911F910F91FF90EF90DF90CF90BF9032
:1033C000AF909F908F907F906F905F904F900895F7
:1033D000AA24A3946301F4E2CF0ED11C730120E26E
:1033E000E20EF11C8301045E1F4F93012C5E3F4FE0
:1033F000A301405F5F4FB301645F7F4FC3010E9431
:10340000F20C55CA6FEC71E084ED91E00E94630309
:10341000C4CF459A449A449845980895459844984D
:10342000459A449A089547B13C98449A459A36B1D2
:10343000232F2071459834FF03C0F0DF21E001C045
:1034400047B9822F089587B13C9A4498459A459888
:1034500087B9449A089588E067FF02C0449A01C082
:103460004498660F459A45988150B1F7089527B161
:103470003C9898E080E0459A880F3499816045989F
:1034800027B99150C1F70895AF92BF92CF92DF92C2
:10349000EF92FF920F931F93CF93DF9300D0CDB79E
:1034A000DEB75C017B01122F87B1806387B988B1D9
:1034B000806388B9C5013A834983ABDF4981642FB2
:1034C000C501C9DFC501AFDF3A8181112AC0632F71
:1034D000C501C1DFC501A7DF811123C0612FC5016F
:1034E000BADFC501A0DF182F81111BC0C02ED12C5F
:1034F0000023A1F0F601E01BF109EE0DFF1D608134
:10350000C501A9DF0150C5018EDF81110AC065E048
:1035100070E080E090E00E947A05EACFC5017EDF8E
:1035200001C011E0812F0F900F90DF91CF911F917B
:103530000F91FF90EF90DF90CF90BF90AF900895E4
:103540008F929F92AF92BF92CF92DF92EF92FF92B3
:103550000F931F93CF93DF931F92CDB7DEB74C012C
:103560005B01142FF22E87B1806387B988B1806325
:1035700088B9C40139834DDF612FC4016CDFC401F8
:1035800052DF398181110EC0632FC40164DFC40191
:103590004ADF811107C06F2DC4015DDFC40143DF25
:1035A000882311F011E01FC0C40133DF61E0610F17
:1035B000C40151DFC40137DF182F8111F3CFC02EB2
:1035C000D12C002371F07601E01AF108EA0CFB1C03
:1035D000C4014DDFF7018083015019F0C40133DFCE
:1035E000F0CFC4011BDF812F0F90DF91CF911F918E
:1035F0000F91FF90EF90DF90CF90BF90AF909F9092
:103600008F900895AF92BF92CF92DF92EF92FF9288
:103610000F931F93CF93DF931F92CDB7DEB77C013B
:103620005B016A01562F5F775C37E8F02530310582
:10363000D1F410E8151B012F9B0140EAB601598314
:1036400023DF65E070E080E090E00E947A05612F62
:1036500070E0598105E8050F9B012A0D3B1D6C0D9B
:103660007D1D40EA04C0022F950140EAB601C70162
:103670000BDF0F90DF91CF911F910F91FF90EF9093
:10368000DF90CF90BF90AF900895EF92FF920F938D
:103690001F93CF93DF9300D000D01F92CDB7DEB73A
:1036A0008C017C0182EEE81A8CEFF80AF701608148
:1036B00071816B3FFFEF7F0708F040C06A3F8FEFDB
:1036C000780799F1F801E65EFC4F8081853069F159
:1036D000C8010E94E20BF80160897189828993898F
:1036E0000E9454286983F8016489758986899789BD
:1036F0000E9454286A83F8016485758586859785BC
:103700000E9454286B83F7016081718125E030E0CD
:10371000AE014F5F5F4FC80175DFF7018081918176
:1037200005969183808381E00AC08FEF898325E02D
:1037300030E0AE014F5F5F4FC80164DF80E00F9063
:103740000F900F900F900F90DF91CF911F910F91DD
:10375000FF90EF900895AF92BF92CF92DF92EF92D9
:10376000FF920F931F93CF93DF931F92CDB7DEB7D6
:103770007C015B016A01562F5F775C37E8F02530EA
:103780003105D1F410E8151B012F9B0140EAB60169
:103790005983D6DE65E070E080E090E00E947A0513
:1037A000612F70E0598105E8050F9B012A0D3B1D33
:1037B0006C0D7D1D40EA04C0022F950140EAB60160
:1037C000C701BEDE0F90DF91CF911F910F91FF9047
:1037D000EF90DF90CF90BF90AF9008954F925F929F
:1037E0006F927F928F929F92AF92BF92CF92DF9211
:1037F000EF92FF920F931F93CF93DF9300D000D0EF
:103800001F92CDB7DEB75C014C0182EE881A8CEFB7
:10381000980AF4016081718125E030E0AE014F5FCC
:103820005F4FC50198DF19811F3F09F440C06A81CD
:1038300070E080E090E00E948028F501E65FFC4F98
:1038400020813181428153810E9453276B017C0189
:10385000612F70E080E090E00E948028F501E25F37
:10386000FC4F20813181428153810E9453272B01DB
:103870003C016B8170E080E090E00E948028F501BF
:10388000EE5EFC4F20813181428153810E9453279B
:10389000AB01BC0193018201C5010E94C80CF40177
:1038A0008081918105969183808381E001C080E0D1
:1038B0000F900F900F900F900F90DF91CF911F916D
:1038C0000F91FF90EF90DF90CF90BF90AF909F90BF
:1038D0008F907F906F905F904F90089580E892E076
:1038E0000E9442066EE171E08AE792E00C94A52402
:1038F0008AE792E0C2C72F923F924F925F926F92F7
:103900007F928F929F92AF92BF92CF92DF92EF926F
:10391000FF920F931F93CF93DF93CDB7DEB72A9714
:103920000FB6F894DEBF0FBECDBF3C0184ED91E031
:103930000E940301892B21F14DE564ED71E0CE0178
:103940000196A0D4BE016F5F7F4F8AE792E00E948C
:103950000B25CE01019691D76DE58AE792E00E9492
:1039600056256AE772E0CE0101960E940325BE014A
:103970006F5F7F4FC3010E94E312CE0101967DD796
:10398000F30183A58F3F09F4A5C00E944B05F30105
:1039900003A5C0A8D1A8E2A8F3A86C197D098E09D7
:1039A0009F0910E024A935A9029F6001039FD00C54
:1039B000129FD00C1124E12CF12C6C157D058E0585
:1039C0009F0508F487C0000F111F000F111F060D7F
:1039D000171DF80126A837A840AC51ACF301248686
:1039E00035864686578698012A5D3E4F38872F8355
:1039F000F9016081718182819381F301608B718B08
:103A0000828B938B20513F4F3A872987F901C080E1
:103A1000D180E280F380F301C48AD58AE68AF78AEE
:103A2000E25FFC4F20813181428153810E94532704
:103A30004B015C01EF81F8856083718382839383FE
:103A4000F301E65FFC4F2081318142815381C70140
:103A5000B6010E9453276B017C01E985FA856083DA
:103A6000718382839383F301EE5EFC4F2081318169
:103A700042815381C201B1010E945327AB01BC01B5
:103A8000F80146AB57AB60AF71AF95018401C3013C
:103A90000E94C80CF30123A530E081A592A596955C
:103AA0008795969587952817390741F4208D318D94
:103AB000428D538D63E0C3010E94C30CF30123A523
:103AC0002F5F23A730E081A592A52817390710F0B2
:103AD0008FEF83A7F30184A595A5A6A5B7A5892B8C
:103AE0008A2B8B2B99F00E944B05F30104A515A599
:103AF00026A537A5601771078207930738F083E082
:103B000009D6F30114A615A616A617A684E00E94EE
:103B1000A526892B39F087E00E94A526892B09F07C
:103B20003FC02EC062E370E080E090E00E947A0522
:103B300084E00E94A526892BE9F4F301E65EFC4FA0
:103B40008081823028F08230A9F485E0808312C021
:103B500082E08083F301E25EFC4F11821082C30198
:103B600092D2C30103968FD2C30106968CD2C301B1
:103B7000099689D284E00E94A526892BD9F3CBCF60
:103B800062E370E080E090E00E947A0587E00E94A6
:103B9000A526892BF1F087E00E94A526892BD9F371
:103BA0008301055E1C4FF8018080912CA12CB12C63
:103BB0000E944B05F2E3CF2ED12CE12CF12CA70172
:103BC00096010E94E82686169706A806B90621F5F2
:103BD00069C08301065E1C4FF8018081823030F09D
:103BE00083508230C0F6F8011082D5CF68EE73E0C2
:103BF00080E090E00E947A05F301E25EFC4F1182C2
:103C0000108287E00E94A526892B11F484E001C070
:103C100083E0F8018083BFCF0E944B05A701960186
:103C20000E94E826F801608361113CC08301065EB2
:103C30001C4FF8018081833049F018F48230B9F0CC
:103C400031C0843051F0853091F02CC0C301C6DD05
:103C5000811128C0F801108204C0C301BFDD8111A9
:103C600021C0F301E25EFC4F118210821BC0C30130
:103C70000CDD811117C0F8011082F301E25EFC4FE8
:103C80001182108260E0C3010E94580B61E0C30101
:103C90000E94580B62E0C3010E94580B63E0C3010D
:103CA0000E94580B2A960FB6F894DEBF0FBECDBF08
:103CB000DF91CF911F910F91FF90EF90DF90CF9008
:103CC000BF90AF909F908F907F906F905F904F903C
:103CD0003F902F9008951F920F920FB60F921124CC
:103CE0002F933F934F935F936F937F938F939F9304
:103CF000AF93BF93CF93DF93EF93FF938091A10591
:103D000087FF05C0109285001092840016C0209194
:103D1000A105332727FD30958091A00590E0281755
:103D200039075CF43091A10526E03203D00111245B
:103D3000AE55BA4F8C9186FD15C08091A1058F5F5D
:103D40008093A1052091A105332727FD309580910F
:103D5000A00590E0281739078CF48091A1058C30DC
:103D60002CF10CC03091A1053203F0011124EE5565
:103D7000FA4F808160E08F73B3D7DFCF80918400EA
:103D800090918500049680349C4918F480E49CE965
:103D900005C08091840090918500049690938900DD
:103DA000809388008FEF8093A105C4C03091A10556
:103DB00026E03203F0011124EE55FA4F8581882365
:103DC00009F48DC03091A1054091A1054203D001B5
:103DD0001124AE55BA4F11968D919C9112973203D2
:103DE000F0011124EE55FA4F438154813091A10521
:103DF0008417950768F54091A1054203F00111244D
:103E0000EE55FA4F818192813203D0011124AE55D3
:103E1000BA4F15963C91830F911D92838183309107
:103E2000A1054091A1054203E0011124CE55DA4FCE
:103E300089819A813203D0011124AE55BA4F13966D
:103E40004D915C9114978417950708F448C02BC0D6
:103E50004091A1054203F0011124EE55FA4F8181F2
:103E600092813203D0011124AE55BA4F15963C9180
:103E7000831B9109928381833091A1054091A10513
:103E80004203E0011124CE55DA4F89819A81320331
:103E9000D0011124AE55BA4F13964D915C911497F1
:103EA00048175907E0F03091A1054091A105420360
:103EB000E0011124CE55DA4F8B819C813203D00171
:103EC0001124AE55BA4F12969C938E931197309150
:103ED000A1053203F0011124EE55FA4F158220910D
:103EE0008400309185005091A10546E05403D00133
:103EF0001124AE55BA4F11968D919C911297820F55
:103F0000931F90938900809388002091A10524033A
:103F1000D0011124AE55BA4F8C9186FF0BC0209171
:103F2000A1052403F0011124EE55FA4F808161E0D0
:103F30008F73D6D6FF91EF91DF91CF91BF91AF9163
:103F40009F918F917F916F915F914F913F912F91B1
:103F50000F900FBE0F901F901895E091A005EC30C8
:103F600088F421E02E0F2093A005DC01EC93B6E04D
:103F7000EB9FF0011124EE55FA4F88EB9BE0928302
:103F8000818308952FEFFC0120830895DF92EF9243
:103F9000FF920F931F93CF93DF93EC01D62E7A01FC
:103FA000890188818C3008F060C061E08D2D5FD67A
:103FB000888196E0899FF0011124EE55FA4F2D2D4E
:103FC0002F739081907C922B908364EF71E06E1937
:103FD0007F0977FF02C06D5F7F4F75956795759577
:103FE0006795698344EC59E0401B510B57FF02C0B1
:103FF0004D5F5F4F55954795559547954A836CE0C2
:10400000DBD69CE0899FA001112420E030E096E0FF
:10401000B901640F751F969FF001979FF00D112451
:10402000EE55FA4F608166FD16C02F5F3F4F2C3072
:10403000310571F781110FC01092800082E08093EA
:1040400081001092850010928400B19A80916F00D7
:10405000826080936F00E88186E0E89FF001112480
:10406000EE55FA4F8081806480838881DF91CF9103
:104070001F910F91FF90EF90DF90089524EC39E0AD
:1040800044EF51E083CFDC01EC91B6E0EB9FF0010F
:104090001124EE55FA4F80818F7B80830895FC01B7
:1040A00080818C3060F591812DE730E0291B31094A
:1040B00097FD3395220F331F220F331F62177307AB
:1040C0007CF0928121E732E0291B310997FD33957D
:1040D000220F331F220F331F621773070CF49B014B
:1040E00022503109220F331F9FB7F89446E0849F76
:1040F000F0011124EE55FA4F328321839FBF0895BA
:104100004F925F926F927F92AF92BF92CF92DF9267
:10411000EF92FF920F931F93CF93DF93EC012A014D
:104120003B0120E030E04AEF53E4C301B20148D73D
:1041300087FF5AC020E030E0A901C301B20140D797
:1041400087FD11C020E030E044E353E4C301B20135
:104150000E94AB29181654F4412C512C34E3632EE1
:1041600033E4732E03C0412C512C320189812DE799
:1041700030E0281B310987FD3395220F331F220FB2
:10418000331F5901CC24B7FCC094DC2C20E030E074
:1041900040E251E4C301B2010E94B62980D72A81CE
:1041A00041E752E0421B510927FD5395440F551F2B
:1041B000440F551F2A01662457FC6094762C7F9289
:1041C0006F925F924F9218E0E12E17E0F12E00E01F
:1041D00010E020E030E0A9010BD394D72B013C0183
:1041E0000F900F900F900F90C301B20158D7CE01DE
:1041F000DF91CF911F910F91FF90EF90DF90CF90C3
:10420000BF90AF907F906F905F904F9048CFDC0150
:10421000EC91B6E0EB9FF0011124EE55FA4F80814E
:1042200086FB882780F908950F931F93CF93DF9320
:10423000EC010E944B05688779878A879B87E88114
:10424000F9810680F781E02DCE01099597FF15C011
:104250000E944B05088519852A853B85601B710BDB
:10426000820B930B0C811D812E813F81601771079A
:104270008207930720F38FEF9FEFDF91CF911F917C
:104280000F910895EF92FF920F931F93CF93DF93B7
:10429000EC018B01E42E6EE171E057D3C801C4DF5D
:1042A000FF24E7FCF09497FD09C08E159F0531F0BF
:1042B000682FCE01FBD3C801B7DFF5CFCE01DF9168
:1042C000CF911F910F91FF90EF9008953F924F92E1
:1042D0005F926F927F928F929F92AF92BF92CF9296
:1042E000DF92EF92FF920F931F93CF93DF9300D053
:1042F00000D0CDB7DEB78B0129013A0190910A01B8
:10430000981721F09F3F09F0CFC104C0EAEFF0E019
:10431000349081C080930A01EAEFF0E0E491EF3F2E
:1043200009F4C2C1E13031F1E23009F44BC0E111CE
:1043300071C014BC15BC94B5926094BD95B59160E4
:1043400095BD282F30E0F901ED5DFE4FE491F0E0DE
:10435000EE0FFF1FEF5BFE4F459154915093FA050E
:104360004093F905F901E15FFE4F24912093F80590
:10437000312C53C0109280001092810090918100E6
:10438000986090938100909181009160909381005A
:10439000282F30E0F901ED5DFE4FE491F0E0EE0FE3
:1043A000FF1FEF5BFE4F459154915093F3054093EF
:1043B000F205F901E15FFE4F24912093F1053324CA
:1043C00033942BC01092B0001092B1009091B000C5
:1043D00092609093B0009091B10091609093B10081
:1043E000282F30E0F901ED5DFE4FE491F0E0EE0F93
:1043F000FF1FEF5BFE4F459154915093EC054093A6
:10440000EB05F901E15FFE4F24912093EA0552E0AC
:10441000352E03C03E2E37FC47C161E028D4480149
:10442000A12CB12C832D8D7F09F0C1C060E072E119
:104430008AE790E0A5019401EDD429833A834B8368
:104440005C8369017A0181E0C81AD108E108F108AA
:104450009FEFC916D104E104F10409F008F495C0F6
:1044600060E472E48FE090E0A5019401D3D4690187
:104470007A01E1E0CE1AD108E108F108F2E03F123A
:1044800018C08FEFC816D104E104F10409F008F454
:1044900086C060E970ED83E090E0A5019401BAD494
:1044A00069017A0191E0C91AD108E108F10883E0B5
:1044B00001C082E0EFEFCE16D104E104F10409F06F
:1044C00008F464C068E478EE81E090E0A50194010E
:1044D000A1D469017A01F1E0CF1AD108E108F1080D
:1044E0003320D9F082E038121AC09FEFC916D104E8
:1044F000E104F10409F008F4D5C064E274EF80E04F
:1045000090E0A501940186D469017A01E1E0CE1A18
:10451000D108E108F10885E003C083E001C084E030
:10452000FFEFCF16D104E104F10481F178F162E1EB
:104530007AE780E090E0A50194016CD469017A01EA
:1045400081E0C81AD108E108F108311002C084E006
:1045500001C086E09FEFC916D104E104F104B1F077
:10456000A8F0C980DA80EB80FC809AE0F594E794AB
:10457000D794C7949A95D1F7E1E0CE1AD108E10813
:10458000F108332031F087E00BC081E0332011F0D7
:1045900007C085E095B5987F982B95BD36C082E021
:1045A0009091B100987F982B9093B1002EC060E05D
:1045B00072E18AE790E0A50194012CD469017A01A7
:1045C000F1E0CF1AD108E108F108C114D10481E06B
:1045D000E806F10480F068E478EE81E090E0A5015F
:1045E000940118D469017A0191E0C91AD108E1084F
:1045F000F10893E001C091E0E1E03E1206C0809135
:104600008100887F892B80938100411451046104CB
:10461000710461F0D801AA0FBB1FA301920116D447
:1046200028EE33E040E050E0D3D303C02FEF3FEF5C
:10463000A901F1E03F16A1F082E0381619F131101E
:1046400033C0C7BC2093FB053093FC054093FD05A8
:104650005093FE0580916E00826080936E0024C0AE
:10466000D0928900C09288002093F4053093F5051C
:104670004093F6055093F70580916F008260809318
:104680006F0012C0C092B3002093ED053093EE0589
:104690004093EF055093F005809170008260809305
:1046A000700002C084E07CCF0F900F900F900F90AD
:1046B000DF91CF911F910F91FF90EF90DF90CF90FE
:1046C000BF90AF909F908F907F906F905F904F9032
:1046D0003F900895813039F018F0823051F00895FC
:1046E00010926E00089580916F008D7F80936F000F
:1046F0000895809170008D7F8093700081E0809399
:10470000B0008091B100887F84608093B1001092E6
:10471000B3000895CF93C82F80910A018C1307C06E
:10472000EAEFF0E084919FEF90930A0101C08FEFD0
:10473000D1DF60E08C2FCF91D3C21F920F920FB6C2
:104740000F9211242F933F934F935F936F937F9317
:104750008F939F93AF93BF93EF93FF938091ED055A
:104760009091EE05A091EF05B091F005892B8A2B71
:104770008B2B51F19091EA05E091EB05F091EC055E
:104780008081892780838091ED059091EE05A0912D
:10479000EF05B091F005181619061A061B06BCF4B1
:1047A0008091ED059091EE05A091EF05B091F00597
:1047B0000197A109B1098093ED059093EE05A093AF
:1047C000EF05B093F00503C080910A01A3DFFF91CC
:1047D000EF91BF91AF919F918F917F916F915F9179
:1047E0004F913F912F910F900FBE0F901F901895F2
:1047F0004F925F926F927F92AF92BF92CF92DF9271
:10480000EF92FF920F931F93CF93DF93CDB7DEB755
:1048100029013A01621B730B840B950B29893A8994
:104820004B895C892A193B094C095D09298B3A8B14
:104830004B8B5C8B9B01AC0169897A898B899C8944
:10484000ACD2E418F50806091709A8019701E2D2CD
:104850002A0D3B1D4C1D5D1DCA01B901DF91CF9191
:104860001F910F91FF90EF90DF90CF90BF90AF908E
:104870007F906F905F904F900895FC0180819181AF
:10488000E5C6CF93DF93EC0188819981009709F009
:10489000DDD6198218821D821C821B821A82DF914A
:1048A000CF9108950F931F93CF93DF93EC018B016A
:1048B0006F5F7F4F8881998158D7009731F0998336
:1048C00088831B830A8381E001C080E0DF91CF9160
:1048D0001F910F910895CF93DF93EC018881998107
:1048E000892B29F08A819B818617970758F4CE017E
:1048F000D9DF882341F08C819D81892B19F4E881CF
:10490000F981108281E0DF91CF910895EF92FF92BB
:104910000F931F93CF93DF93EC017B018A01BA01C0
:10492000DADF811103C0CE01ACDF07C01D830C8329
:10493000B701888199810E94A02CCE01DF91CF918F
:104940001F910F91FF90EF900895FC01118210824A
:1049500013821282158214826115710551F0FB01D8
:1049600001900020E9F7AF0141505109461B570B58
:10497000CDCF08950F931F93CF93DF938C01EB015D
:10498000FC0180819181009789F0428153812C81C3
:104990003D814217530748F068817981D1D78C81D6
:1049A0009D81F8019583848312C050D688819981B6
:1049B000F801918380838A819B81938382838C8198
:1049C0009D8195838483198218821B821A821D829D
:1049D0001C82DF91CF911F910F910895CF93DF93A8
:1049E000EC01FB018617970751F060817181611519
:1049F000710521F04481558189DF01C042DFCE017C
:104A0000DF91CF910895FC011182108213821282EE
:104A100015821482E3CFCF93DF93EC0186179707BB
:104A200009F0A8DFCE01DF91CF910895CF93DF93F6
:104A3000EC016115710559F0FB0101900020E9F7C7
:104A4000AF0141505109461B570B60DF01C019DF10
:104A5000CE01DF91CF910895EF92FF920F931F93B4
:104A6000CF93DF93EC017B010C811D8161157105F2
:104A700011F480E014C04115510581F0040F151F99
:104A8000B80129DF8823A9F3288139818C819D8190
:104A9000B701820F931F54D71D830C8381E0DF91F0
:104AA000CF911F910F91FF90EF900895CF93DF93D7
:104AB00000D0CDB7DEB769831A8241E050E0BE0175
:104AC0006F5F7F4FC9DF0F900F90DF91CF910895F7
:104AD000FC0124813581232B31F421E0611571051E
:104AE00099F0FB0108C0FC0180819181611571057D
:104AF00031F421E0FC018081882331F004C017D714
:104B000021E0892B09F020E0822F0895CF93DF93D5
:104B1000FC01848195814817590770F4C081D181C7
:104B2000772767FD7095CE01840F951FF5D6009706
:104B300019F08C1B9D0B02C08FEF9FEFDF91CF917F
:104B4000089540E050E0E2CFBF92CF92DF92EF9223
:104B5000FF920F931F93CF93DF936C017B01EA01C8
:104B600089012417350720F48D2FE901042F182F10
:104B70006EE171E0C601E9DED70114968D919C913A
:104B80001597C817D907C0F48017910708F48C014E
:104B9000D701ED91FC911197E00FF11FB0801082C9
:104BA0006D917C916C0F7D1FC60140DFD701ED91A7
:104BB000FC91E00FF11FB082C601DF91CF911F91F0
:104BC0000F91FF90EF90DF90CF90BF900895FC0180
:104BD00080819181009709F08BC660E070E0CB0185
:104BE00008958E3008F08E50877020910B0190E46C
:104BF000299F90011124822B80937C0080917A0060
:104C0000806480937A0080917A0086FDFCCF809149
:104C100078002091790090E0922B0895833081F004
:104C200028F4813099F08230A1F008958730A9F0FE
:104C30008830B9F08430D1F4809180008F7D03C03A
:104C4000809180008F7780938000089584B58F775E
:104C500002C084B58F7D84BD08958091B0008F77A8
:104C600003C08091B0008F7D8093B0000895CF93F2
:104C7000DF9390E0FC01E15FFE4F2491FC01ED5DCC
:104C8000FE4F8491882349F190E0880F991FFC0121
:104C9000E55BFE4FA591B4918F5B9E4FFC01C591E2
:104CA000D4919FB7611108C0F8948C91209582230C
:104CB0008C93888182230AC0623051F4F8948C91DD
:104CC000322F309583238C938881822B888304C074
:104CD000F8948C91822B8C939FBFDF91CF91089594
:104CE0000F931F93CF93DF931F92CDB7DEB7282F7B
:104CF00030E0F901E550FF4F8491F901E15FFE4F8B
:104D00001491F901ED5DFE4F04910023C1F0882359
:104D100019F0698383DF6981E02FF0E0EE0FFF1F58
:104D2000EF5BFE4FA591B4919FB7F8948C91611100
:104D300003C01095812301C0812B8C939FBF0F90DE
:104D4000DF91CF911F910F910895CF93DF93282F7B
:104D500030E0F901E550FF4F8491F901E15FFE4F2A
:104D6000D491F901ED5DFE4FC491CC2389F08111FE
:104D700055DFEC2FF0E0EE0FFF1FE95CFE4FA59131
:104D8000B4912C912D2381E090E021F480E002C0C9
:104D900080E090E0DF91CF910895DB018F939F93A6
:104DA00055D0BF91AF91A29F800D911DA39F900DF3
:104DB000B29F900D11240895991B79E004C0991FAA
:104DC000961708F0961B881F7A95C9F78095089565
:104DD000A1E21A2EAA1BBB1BFD010DC0AA1FBB1FFF
:104DE000EE1FFF1FA217B307E407F50720F0A21B71
:104DF000B30BE40BF50B661F771F881F991F1A94DE
:104E000069F760957095809590959B01AC01BD0107
:104E1000CF010895052E97FB16F400940FD057FD8F
:104E200005D0D6DF07FC02D046F408C05095409567
:104E3000309521953F4F4F4F5F4F08959095809546
:104E4000709561957F4F8F4F9F4F08950FD0A59F0D
:104E5000900DB49F900DA49F800D911D1124089575
:104E6000EE0FFF1F0590F491E02D0994A29FB00171
:104E7000B39FC001A39F700D811D1124911DB29F8E
:104E8000700D811D1124911D08959F939F7775D1F9
:104E90000F9000203AF49058A2EA2AED3FE049E44E
:104EA00050E413D00DC25058BB27AA270ED008C219
:104EB000D1D130F0D6D120F031F49F3F11F41EF45F
:104EC000A1C10EF4E095E7FB97C1E92F1BD280F357
:104ED000BA17620773078407950718F071F49EF5F7
:104EE00033C20EF4E0950B2EBA2FA02D0B01B901A1
:104EF00090010C01CA01A0011124FF27591B99F050
:104F0000593F50F4503E68F11A16F040A22F232F5B
:104F1000342F4427585FF3CF469537952795A795AB
:104F2000F0405395C9F77EF41F16BA0B620B730B52
:104F3000840BBAF09150A1F0FF0FBB1F661F771FC3
:104F4000881FC2F70EC0BA0F621F731F841F48F478
:104F5000879577956795B795F7959E3F08F0B3CFFE
:104F60009395880F08F09927EE0F979587950895E8
:104F7000DF93DD27B92FBF7740E85FE316161706EA
:104F800048075B0710F4D92FEAD19F938F937F9343
:104F90006F9397D2E8E6F0E038D192D12F913F910C
:104FA0004F915F91EFD1DD2349F09058A2EA2AEDAD
:104FB0003FE049EC5FE3D0785D2787DFDF9180C178
:104FC000F7D008F481E0089554D1E3958AC10CD05C
:104FD00077C147D140F03ED130F021F45F3F19F066
:104FE0000BC15111B2C10EC18DD198F39923C9F3F0
:104FF0005523B1F3951B550BBB27AA2762177307DF
:10500000840738F09F5F5F4F220F331F441FAA1F92
:10501000A9F333D00E2E3AF0E0E830D09150504052
:10502000E695001CCAF729D0FE2F27D0660F771F00
:10503000881FBB1F261737074807AB07B0E809F0E2
:10504000BB0B802DBF01FF2793585F4F2AF09E3F77
:10505000510568F0D1C079C15F3FECF3983EDCF3B5
:10506000869577956795B795F7959F5FC9F7880FF0
:10507000911D9695879597F90895E1E0660F771F42
:10508000881FBB1F621773078407BA0720F0621BD3
:10509000730B840BBA0BEE1F88F7E095089504D0CC
:1050A0006894B11152C1089535D188F09F5790F09E
:1050B000B92F9927B751A0F0D1F0660F771F881F3D
:1050C000991F1AF0BA95C9F712C0B13081F03CD1DE
:1050D000B1E0089539C1672F782F8827B85F39F07C
:1050E000B93FCCF3869577956795B395D9F73EF49C
:1050F00090958095709561957F4F8F4F9F4F089544
:10510000E89409C097FB3EF4909580957095619561
:105110007F4F8F4F9F4F9923A9F0F92F96E9BB2717
:105120009395F695879577956795B795F111F8CF93
:10513000FAF4BB0F11F460FF1BC06F5F7F4F8F4FFE
:105140009F4F16C0882311F096E911C0772321F0F4
:105150009EE8872F762F05C0662371F096E8862F8C
:1051600070E060E02AF09A95660F771F881FDAF7E3
:10517000880F9695879597F90895DF93CF931F939E
:105180000F938B01EC01E5E9F0E03FD099D0980155
:10519000AE018B01EC0160E070E080E89FE383DE0C
:1051A00052D19801AE010F911F91CF91DF91EAC0CA
:1051B000990F0008550FAA0BE0E8FEEF1616170628
:1051C000E807F907C0F012161306E407F50798F090
:1051D000621B730B840B950B39F40A2661F0232BA9
:1051E000242B252B21F408950A2609F4A140A69525
:1051F0008FEF811D811D089597F99F6780E870E00A
:1052000060E008959FEF80EC0895DF93CF931F93A4
:105210000F93FF92EF92DF927B018C01689405C09F
:10522000DA2EEF01AFD0FE01E894A59125913591DA
:1052300045915591AEF3EF0148DEFE019701A801BB
:10524000DA9479F7DF90EF90FF900F911F91CF9153
:10525000DF91089500240A94161617061806090609
:10526000089500240A9412161306140605060895DC
:10527000C9CF50D0E8F3E894E0E0BB279F57F0F0A7
:105280002AED3FE049EC06C0EE0FBB0F661F771F0B
:10529000881F28F0B23A62077307840728F0B25AD1
:1052A000620B730B840BE3959A9572F7803830F498
:1052B0009A95BB0F661F771F881FD2F790480AC1C7
:1052C000092E0394000C11F4882352F0BB0F40F414
:1052D000BF2B11F460FF04C06F5F7F4F8F4F9F4F54
:1052E0000895EF93E0FF06C0A2EA2AED3FE049EC03
:1052F0005FEBEBDDE5DF0F90039401FC9058EDEBE5
:10530000F0E0FBC057FD9058440F551F59F05F3F28
:1053100071F04795880F97FB991F61F09F3F79F0D7
:1053200087950895121613061406551FF2CF469559
:10533000F1DF08C0161617061806991FF1CF8695DB
:105340007105610508940895E894BB2766277727BF
:10535000CB0197F908952CDF08F48FEF08959B0196
:10536000AC0160E070E080E89FE331CE0BD0A8CFC5
:1053700071DF28F076DF18F0952309F03DCF42CF9A
:105380001124E3CFBFDFA0F3959FD1F3950F50E039
:10539000551F629FF001729FBB27F00DB11D639FE7
:1053A000AA27F00DB11DAA1F649F6627B00DA11D8D
:1053B000661F829F2227B00DA11D621F739FB00D33
:1053C000A11D621F839FA00D611D221F749F3327A3
:1053D000A00D611D231F849F600D211D822F762F3C
:1053E0006A2F11249F5750408AF0E1F088234AF039
:1053F000EE0FFF1FBB1F661F771F881F9150504085
:10540000A9F79E3F510570F0F7CE9FCF5F3FECF3B9
:10541000983EDCF3869577956795B795F795E79570
:105420009F5FC1F7FE2B880F911D9695879597F981
:1054300008959F931EDF0F9007FCEE5F52CF11F48B
:105440000EF4E0CE45C066DFD0F39923D9F3CEF356
:105450009F57550B87FF4AD00024A0E640EA9001F1
:1054600080585695979528F4805C660F771F881FA3
:1054700020F026173707480730F4621B730B840BA4
:10548000202931294A2BA6951794079420253125E8
:105490004A2758F7660F771F881F20F0261737070F
:1054A000480730F4620B730B840B200D311D411D36
:1054B000A09581F7B901842F9158880F969587950B
:1054C00008959B01AC0152CF73DE880B990B0895B0
:1054D0009F3F31F0915020F4879577956795B79568
:1054E000880F911D9695879597F908959150504092
:1054F000660F771F881FD2F708959F938F937F932E
:105500006F93FF93EF939B01AC0130DFEF91FF911D
:105510007CDE2F913F914F915F9128CFCF93DF9306
:105520008230910510F482E090E0E0910106F09164
:10553000020620E030E0A0E0B0E0309739F1408191
:10554000518148175907B8F04817590771F48281FB
:105550009381109729F013969C938E9312972CC0E9
:10556000909302068093010627C02115310531F082
:105570004217530718F0A901DB0101C0EF019A019E
:10558000BD01DF010280F381E02DD7CF2115310568
:10559000F9F0281B390B2430310580F48A819B8176
:1055A0006115710521F0FB019383828304C0909300
:1055B000020680930106FE01329644C0FE01E20F0E
:1055C000F31F8193919322503109398328833AC084
:1055D0002091FF0530910006232B41F42091020118
:1055E00030910301309300062093FF0520910001C4
:1055F000309101012115310541F42DB73EB740919D
:10560000040150910501241B350BE091FF05F09139
:105610000006E217F307A0F42E1B3F0B28173907EB
:1056200078F0AC014E5F5F4F2417350748F04E0FFE
:105630005F1F509300064093FF058193919302C032
:10564000E0E0F0E0CF01DF91CF910895CF93DF93B9
:10565000009709F487C0FC01329713821282C0912F
:105660000106D0910206209781F420813181280F14
:10567000391F8091FF05909100068217930779F5F5
:10568000F0930006E093FF056DC0DE0120E030E0FE
:10569000AE17BF0750F412964D915C9113979D0180
:1056A0004115510509F1DA01F3CFB383A28340819B
:1056B0005181840F951F8A179B0771F48D919C91DE
:1056C0001197840F951F02969183808312968D9176
:1056D0009C911397938382832115310529F4F093CC
:1056E0000206E09301063EC0D9011396FC93EE93A7
:1056F00012974D915D91A40FB51FEA17FB0779F43E
:1057000080819181840F951F0296D90111969C93F7
:105710008E938281938113969C938E931297E0E0EF
:10572000F0E08A819B81009719F0FE01EC01F9CF2E
:10573000CE01029628813981820F931F2091FF05A7
:10574000309100062817390769F4309729F4109230
:1057500002061092010602C013821282D093000644
:10576000C093FF05DF91CF910895A0E0B0E0EAEB90
:10577000FBE27AC2EC01CB01209711F4CFDEB4C07A
:10578000FE01E60FF71F9E0122503109E217F307D1
:1057900008F4A8C0D9010D911C911197061717079D
:1057A000B0F00530110508F49BC0A8014450510920
:1057B0004617570708F494C002501109061B170B2F
:1057C000019311936D937C93CF0140DF89C05B01FE
:1057D000A01AB10A4E01800E911EA0910106B0914F
:1057E0000206612C712C60E070E0109709F449C04A
:1057F000A815B905C9F5ED90FC901197670142E035
:10580000C40ED11CCA14DB0478F147018A189B0826
:10581000640142E0C40ED11C1296BC9012971396FC
:10582000AC91B5E0CB16D10440F0B282A383918253
:105830008082D9018D939C9309C00E5F1F4F0E0D7E
:105840001F1DF90111830083EB2DFA2F61157105DE
:1058500031F0DB011396FC93EE93129741C0F09365
:105860000206E09301063CC06D917C91119766168B
:10587000770608F43B01BD0112960D90BC91A02D56
:10588000B4CF6091FF057091000668157905E9F4C1
:1058900068167906D0F4409100015091010141153C
:1058A000510541F44DB75EB7609104017091050157
:1058B000461B570BE417F507A8F4F0930006E09396
:1058C000FF05F901918380830BC028DE7C010097DE
:1058D00049F0A801BE0117D0CE01B8DEC70104C04F
:1058E000CE0102C080E090E0CDB7DEB7EEE0D8C1D7
:1058F0006627772742C0911198C1803219F08950EC
:105900008550D0F70895FB01DC0102C001900D9293
:1059100041505040D8F70895FC018191861721F03D
:105920008823D9F7992708953197CF010895FB016E
:10593000DC018D91019080190110D9F3990B089524
:10594000FB01DC0101900D920020E1F70895F99927
:10595000FECF92BD81BDF89A992780B50895262F74
:10596000F999FECF1FBA92BD81BD20BD0FB6F89444
:10597000FA9AF99A0FBE01960895A0E0B0E0E2EC21
:10598000FCE274C18B016115710521F0DB018C9380
:1059900011969C93EC015E01BFEFAB1ABB0A750137
:1059A000C8808C2D90E0A7DF892B11F0E501F3CFA3
:1059B000EDE2CE1208C07E01F2E0EF0EF11CC980CC
:1059C000DD24D39409C02BE2C21205C07E0142E05F
:1059D000E40EF11CC980D12CE701219743E050E08F
:1059E0006DE571E0CE0124D1892BB9F4239645E011
:1059F00050E068E571E0CE011BD1892B09F42596B2
:105A00000115110519F0D801CD93DC93D11000C117
:105A100060E070E080E89FE704C143E050E065E5A6
:105A200071E0CE0105D1892B59F40115110509F456
:105A3000F4C0B2E0EB0EF11CF801F182E082EDC09F
:105A4000F70160E070E0CB01C0E0D0E07F01A0EDA5
:105A5000AA2EAC0C29E02A1528F14D2D4260B42E57
:105A60002D2D2870D2FE04C0211124C0219622C001
:105A700021112197A5E0B0E09B01AC01E7D9660FA9
:105A8000771F881F991F6A0D711D811D911D68392F
:105A9000A9E97A078A07A9E19A0760F0BD2DB660E7
:105AA000BB2E08C02EEFA2120AC0D3FC50C04D2D51
:105AB0004860B42E3196D701CC90DB2CC7CF2C2D6B
:105AC0002F7D253409F043C0A081AD3241F4BD2DB6
:105AD000B061DB2E7F0122E0E20EF11C0CC07F01E1
