:1000000072C1000097C1000095C1000093C10000BB
:1000100091C100008FC100008DC100000C94232607
:1000200089C1000087C1000085C100000C94FE203A
:1000300081C100007FC100007DC100007BC10000C4
:10004000D6C5000077C10000F6C2000026C300003C
:1000500071C100006FC100006DC100006BC10000E4
:1000600069C1000067C10000084AD73B3BCE016E62
:1000700084BCBFFDC12F3D6C74319ABD56833DDAFF
:100080003D00C77F11BED9E4BB4C3E916BAAAABE0E
:10009000000000803F072C7AA5BA6CC590DA3B932C
:1000A00065FC8BBC53F810FD3C5692834DBD879D7B
:1000B0003AB63DCBC9BF5BBE73DA0FC93F05A84C4A
:1000C000CDB2D44EB93836A9020C50B99186880801
:1000D0003CA6AAAA2ABE000000803F005D005B4645
:1000E000005B53005D005B46005B53005D005B46B8
:1000F000005B5300463100463100734D6F760004BB
:100100000058595A56F40F73506F6C000400535244
:100110004856F20D734174740001004E0000005601
:100120000E734465740001004E0000006B0E7353A3
:1001300065720002004E5600007F0E73416E67002C
:1001400002004E560000AF0E7350756D0001005650
:10015000000000DE0E7347726900010056000000C7
:10016000FE0E7342757A000200465400001C0F73A5
:1001700053747000000000000000540F6756657251
:1001800000000000000000EC0D6753696D000300E3
:1001900058595A005D0F6743726400000000000068
:1001A00000821267506F6C00000000000000AF1268
:1001B00067416E670000000000000032136753655E
:1001C00072000000000000007F1367494B580003D5
:1001D0000058595A00CC1367464B54000300544C46
:1001E00052003C14674D6F76000000000000003F95
:1001F0001067546970000000000000004E10674452
:1002000069670001004E000000EF14734469670045
:1002100002004E5600005C1067416E610001004E06
:10022000000000FC146745455000020041540000E6
:1002300009157345455000030041545600A6106748
:100240005341440001004E000000E20F0200000094
:100250000800020100000304070000000000000085
:10026000000102040810204080010204081020014F
:10027000020408102004040404040404040202021A
:10028000020202030303030303000000002300260D
:1002900000290000000000250028002B00000000BD
:1002A00000240027002A004E414E494E4954594926
:1002B0004E46CDCCCC3D0AD7233C17B7D13877CCAE
:1002C0002B329595E6241FB14F0A00002041000013
:1002D000C84200401C4620BCBE4CCA1B0E5AAEC5CC
:1002E0009D747B03DF0D11241FBECFEFD8E0DEBF6E
:1002F000CDBF11E0A0E0B1E0EAE2F2E602C0059075
:100300000D92AE37B107D9F725E0AEE7B1E001C0F5
:100310001D92A13AB207E1F712E0C6EED2E004C0A6
:100320002297FE010E94D529C23ED107C9F755D4B4
:100330000C94133165CE8F929F92AF92BF92CF9261
:10034000DF92EF92FF920F931F9326E040E052EC72
:1003500061E070E08EE791E00CD184E292E06BD531
:100360006CE171E08EE791E084D2812C912C80E2E7
:10037000A82E81E4B82EC12CD12C96E1E92E93E46D
:10038000F92E9701860140E050E0BA0184E292E044
:100390000E94C40A1F910F91FF90EF90DF90CF90C1
:1003A000BF90AF909F908F90089584E292E00C945C
:1003B000FD09FC01818D228D90E0805C9F4F821BA6
:1003C00091098F7399270895FC01918D828D98175B
:1003D00031F0828DE80FF11D858D90E008958FEF4B
:1003E0009FEF0895FC01918D828D981761F0828DA9
:1003F000DF01A80FB11D5D968C91928D9F5F9F7359
:10040000928F90E008958FEF9FEF089582E793E039
:10041000892B41F080E090E0892B21F063D181119C
:100420000C9400000895FC01848DDF01A80FB11D1C
:10043000A35ABF4F2C91848D90E001968F7399271A
:10044000848FA689B7892C93A089B1898C91806407
:100450008C93938D848D981306C00288F389E02DC8
:1004600080818F7D80830895CF93DF93EC01888D09
:100470008823C1F0EA89FB89808185FD05C0A889B0
:10048000B9898C9186FD0EC00FB607FCF5CF80812F
:1004900085FFF2CFA889B9898C9185FFEDCFCE0178
:1004A000C2DFE8CFDF91CF910895CF92DF92FF9224
:1004B0000F931F93CF93DF931F92CDB7DEB76C01DD
:1004C00081E0D60158968C9358975B969C915B97E8
:1004D0005C968C915C97981307C05096ED91FC91B7
:1004E0005197808185FD2DC0F601038D10E00F5FCF
:1004F0001F4F0F731127F02EF601848DF81210C0D4
:100500000FB607FCF9CFD6015096ED91FC915197AB
:10051000808185FFF1CFC601698385DF6981ECCFDA
:10052000838DE80FF11DE35AFF4F6083D6015B9680
:100530000C935B975296ED91FC915397808180626A
:100540000CC0D6015696ED91FC915797608350965A
:10055000ED91FC91519780818064808381E090E0EF
:100560000F90DF91CF911F910F91FF90DF90CF906F
:100570000895BF92CF92DF92EF92FF92CF93DF93D5
:10058000EC016A017B01B22EE889F98982E080835F
:10059000411581EE580761057105A1F060E079E031
:1005A0008DE390E0A70196010E948B29215031092B
:1005B000410951095695479537952795211580E1B1
:1005C000380798F0E889F989108260E874E88EE1CC
:1005D00090E0A70196010E948B2921503109410921
:1005E00051095695479537952795EC85FD853083BC
:1005F000EE85FF852083188EEC89FD89B082EA891B
:10060000FB89808180618083EA89FB8980818860A1
:100610008083EA89FB89808180688083EA89FB89FD
:1006200080818F7D8083DF91CF91FF90EF90DF906D
:10063000CF90BF9008951F920F920FB60F92112482
:100640002F938F939F93EF93FF93E0918E01F091FF
:100650008F018081E0919401F091950182FD12C09B
:100660009081809197018F5F8F73209198018217FD
:1006700051F0E0919701F0E0E258FE4F958F8093A2
:10068000970101C08081FF91EF919F918F912F91F0
:100690000F900FBE0F901F9018951F920F920FB6DC
:1006A0000F9211242F933F934F935F936F937F93F8
:1006B0008F939F93AF93BF93EF93FF938EE791E058
:1006C000B2DEFF91EF91BF91AF919F918F917F919A
:1006D0006F915F914F913F912F910F900FBE0F90AF
:1006E0001F9018958EE791E064DE21E0892B09F4D4
:1006F00020E0822F0895109281011092800188EEEF
:1007000093E0A0E0B0E08093820190938301A093F6
:100710008401B093850188E291E090937F018093FA
:100720007E0185EC90E090938B0180938A0184ECAC
:1007300090E090938D0180938C0180EC90E09093F9
:100740008F0180938E0181EC90E0909391018093D2
:10075000900182EC90E0909393018093920186EC5B
:1007600090E09093950180939401109297011092DC
:1007700098011092990110929A010895CF92DF92F8
:10078000EF92FF920F931F93CF93DF937C016A0147
:10079000EB0100E010E00C151D0571F06991D70127
:1007A000ED91FC910190F081E02DC7010995892B15
:1007B00019F00F5F1F4FEFCFC801DF91CF911F914D
:1007C0000F91FF90EF90DF90CF9008956115710524
:1007D00081F0DB010D900020E9F7AD014150510996
:1007E000461B570BDC01ED91FC910280F381E02D5B
:1007F000099480E090E00895EF92FF920F931F9389
:10080000CF93DF938C017B01C0E0D0E0F701EC0FC8
:10081000FD1F6491662359F0F801A081B181ED912B
:10082000FC91C8010995892B11F02196EFCFCE01DB
:10083000DF91CF911F910F91FF90EF900895DC0110
:10084000ED91FC910190F081E02D099464E371E059
:10085000BDCF0F931F93CF93DF93EC01CDDF8C01BE
:10086000CE01F4DF800F911FDF91CF911F910F9187
:1008700008950F931F93CF93DF93EC01A7DF8C01B3
:10088000CE01E4DF800F911FDF91CF911F910F9177
:1008900008958F929F92AF92BF92DF92EF92FF9254
:1008A0000F931F93CF93DF93CDB7DEB7A1970FB60A
:1008B000F894DEBF0FBECDBF7C01F42FD52ECB0147
:1008C00019A2223008F42AE08E010F5D1F4F822EFC
:1008D000912CA12CB12C6F2F7D2DA50194010E948C
:1008E0008B29F22FD32ECA01015011096A3014F45A
:1008F000E0E301C0E7E3E60FD801EC93232B242BC0
:10090000252B49F7B801C70161DFA1960FB6F8940E
:10091000DEBF0FBECDBFDF91CF911F910F91FF9032
:10092000EF90DF90BF90AF909F908F900895CF92FF
:10093000DF92EF92FF920F931F93CF93DF93EC011F
:100940006A017B012115310579F4E881F981019073
:10095000F081E02D642FDF91CF911F910F91FF90D7
:10096000EF90DF90CF9009942A303105D9F477FFCA
:1009700018C06DE264DF8C0144275527BA014C1979
:100980005D096E097F092AE0CE0183DF800F911F88
:10099000DF91CF911F910F91FF90EF90DF90CF905B
:1009A00008952AE0B701A601CE01DF91CF911F91F2
:1009B0000F91FF90EF90DF90CF906BCF9A01AB013A
:1009C000662757FD6095762FB2CF2115310541F48A
:1009D000DC01ED91FC910190F081E02D642F0994F0
:1009E00058CF0F931F93CF93DF93EC019A01AB0184
:1009F00060E070E0EADF8C01CE0128DF800F911FFC
:100A0000DF91CF911F910F9108954F925F926F9256
:100A10007F928F929F92AF92BF92CF92DF92EF928E
:100A2000FF920F931F93CF93DF93EC016A017B0139
:100A3000B22E9A01AB01C701B6010E94072D88238F
:100A400019F067E371E027C026013701E89477F8D1
:100A50002FEF3FEF4FE75FE7C301B2010E94072D81
:100A600081110DC02FEF3FEF4FE75FE7C301B201E8
:100A70000E94832A18161CF46BE371E00CC02FEF60
:100A80003FEF4FE75FE4C701B6010E944E2C1816F6
:100A9000A4F46FE371E0CE01DF91CF911F910F912C
:100AA000FF90EF90DF90CF90BF90AF909F908F908E
:100AB0007F906F905F904F9089CE2FEF3FEF4FE781
:100AC0005FECC701B6010E94832A87FDE2CF20E0D8
:100AD00030E0A901C701B6010E94832A87FF09C03F
:100AE0006DE2CE01ACDE8C01F7FAF094F7F8F094E9
:100AF00002C000E010E0A12C60E070E080E09FE325
:100B0000AB1441F020E030E040E251E40E948A2A38
:100B1000A394F6CF9B01AC01C701B6010E94F7294F
:100B20006B017C010E94F72A2B013C010E94232BC0
:100B30009B01AC01C701B6010E94F6296B017C0143
:100B40002AE0B301A201CE01A4DE080F191FBB20C9
:100B500031F063E471E0CE0139DE080F191F7B2C00
:100B6000772039F120E030E040E251E4C701B601DE
:100B70000E94592C6B017C010E94F22A4B01AA248D
:100B800097FCA094BA2C2AE030E0B501A401CE0174
:100B9000CEDE080F191FC501B4010E94252B9B0151
:100BA000AC01C701B6010E94F6296B017C017A9461
:100BB000D7CFC801DF91CF911F910F91FF90EF9098
:100BC000DF90CF90BF90AF909F908F907F906F906D
:100BD0005F904F90089519CF0895B9D0FDDFABDB3A
:100BE000C6E0D2E0E2DB2097E9F310DCFBCF1F92F6
:100BF0000F920FB60F9211242F933F938F939F93D1
:100C0000AF93BF9380911C0290911D02A0911E0290
:100C1000B0911F0230911B0223E0230F2D3720F4E7
:100C20000196A11DB11D05C026E8230F0296A11D46
:100C3000B11D20931B0280931C0290931D02A09370
:100C40001E02B0931F028091200290912102A09178
:100C50002202B09123020196A11DB11D80932002B2
:100C600090932102A0932202B0932302BF91AF91EF
:100C70009F918F913F912F910F900FBE0F901F90DA
:100C800018952FB7F89460911C0270911D02809105
:100C90001E0290911F022FBF08953FB7F8948091D4
:100CA000200290912102A0912202B091230226B548
:100CB000A89B05C02F3F19F00196A11DB11D3FBF94
:100CC0006627782F892F9A2F620F711D811D911D24
:100CD00042E0660F771F881F991F4A95D1F7089544
:100CE0008F929F92AF92BF92CF92DF92EF92FF923C
:100CF0006B017C01D2DF4B015C01C114D104E10422
:100D0000F104E1F05FD0C9DF681979098A099B090C
:100D1000683E73408105910580F321E0C21AD10835
:100D2000E108F10888EE880E83E0981EA11CB11C32
:100D3000C114D104E104F10431F7DFCFFF90EF904B
:100D4000DF90CF90BF90AF909F908F900895789450
:100D500084B5826084BD84B5816084BD85B58260C0
:100D600085BD85B5816085BDEEE6F0E0808181605E
:100D70008083E1E8F0E0108280818260808380815E
:100D800081608083E0E8F0E0808181608083E1EB36
:100D9000F0E0808184608083E0EBF0E0808181601E
:100DA0008083EAE7F0E080818460808380818260D4
:100DB00080838081816080838081806880831092BD
:100DC000C10008950895CF93DF93EC010E940316AC
:100DD000CE01C896F7D6CE01C9960E947E1FFE01AD
:100DE000EC5EFC4F10823196118210828FEF9FEFE4
:100DF0009BAF8AAF9DAF8CAFDF91CF91089562E03A
:100E000084E00E94DA2861E083E00E94DA2862E050
:100E100082E00E94DA2862E087E00E94DA2861E03E
:100E200086E00E94DA2861E085E00E94DA2861E02D
:100E300089E00C94DA28CF93DF93EC01E0DFCE0158
:100E40000E94051F8FEF9FEF9BAF8AAF9DAF8CAFC6
:100E5000DF91CF910895CF92DF92EF92FF920F939F
:100E60001F93CF93DF93EC018AAD9BAD97FD9DC09F
:100E70002CAD3DAD821793070CF097C002DFEAADB1
:100E8000FBADDE01A05CBF4F0D911D912D913C91FA
:100E9000601B710B820B930B2EAD3FADE29F800167
:100EA000E39F100DF29F100D112420E030E0601739
:100EB00071078207930708F47CC09F0127573F4FB3
:100EC000220F331F220F331F2C0F3D1FAF01435B37
:100ED0005F4F440F551F440F551F4C0F5D1FBF013F
:100EE0006F5E7F4F660F771F660F771F6C0F7D1F3A
:100EF000CE010E943B19823009F44DC0EAADFBAD32
:100F00007196EE0FFF1FEE0FFF1FEC0FFD1F6081AC
:100F10007181828193810E94D315EAADFBADE35BC1
:100F2000FF4FEE0FFF1FEE0FFF1FEC0FFD1F608145
:100F30007181828193810E94D315EAADFBADE757A1
:100F4000FF4FEE0FFF1FEE0FFF1FEC0FFD1F608125
:100F50007181828193810E94D3158AAD9BAD880FE8
:100F6000991F880F991F8C0F9D1FFC01EC5DFD4F91
:100F7000C080D180E280F380E05FF10900811181BF
:100F800022813381E05FF109408151816281738167
:100F9000CE010E9458168AAD9BAD01969BAF8AAFD9
:100FA0002CAD3DAD8217930724F08FEF9FEF9BAFE1
:100FB0008AAFDF91CF911F910F91FF90EF90DF905B
:100FC000CF9008952FEF3FEFFC0133AF22AF08958C
:100FD00041E0FC0122AD33AD2F3F3F4F09F440E02B
:100FE000842F08954F925F926F927F928F929F927B
:100FF000AF92BF92CF92DF92EF92FF920F931F9327
:10100000CF93DF9300D000D01F92CDB7DEB75C0145
:101010004C018BEE881A8CEF980AF4016081718183
:1010200025E030E0AE014F5F5F4FC501C9960E94D9
:10103000BB2019811F3FE1F16A8170E080E090E000
:101040000E94232B6B017C01612F70E080E090E017
:101050000E94232B2B013C016B8170E080E090E02B
:101060000E94232BAB01BC0193018201C5010E94A8
:1010700058166C8170E080E090E00E94232B9B0169
:10108000AC0101E063E0C5010E94A81686E00E9461
:1010900048294D81242F30E08217930771F0C50154
:1010A000442319F00E94061708C00E940E1705C0BD
:1010B000C5010E940E1780E007C0F4018081918174
:1010C00005969183808381E00F900F900F900F9091
:1010D0000F90DF91CF911F910F91FF90EF90DF90D4
:1010E000CF90BF90AF909F908F907F906F905F90C8
:1010F0004F900895AF92BF92CF92DF92EF92FF92FE
:101100000F93CF93DF93CDB7DEB761970FB6F89407
:10111000DEBF0FBECDBF5C017C018BEEE81A8CEF09
:10112000F80AF701608171816B3FFFEF7F0708F0DC
:101130005AC0C501C9966C016A3F9FEF790709F44F
:1011400048C0F501EC5EFC4F8081853009F441C058
:1011500001E09E012A5F3F4FAE01465F5F4FBE0137
:10116000625F7F4FC5010E94A51D6A857B858C85C6
:101170009D850E94F72A69836E817F818885998584
:101180000E94F72A6A836E857F85888999890E94E3
:10119000F72A6B8341E063E0C5010E942B1D0E948A
:1011A000F72A6C8386E00E9448298D83F7016081CD
:1011B000718125E030E0AE014F5F5F4FC6010E94B4
:1011C0001620F7018081918105969183808381E0CB
:1011D0000BC08FEF898325E030E0AE014F5F5F4F9A
:1011E000C6010E94162080E061960FB6F894DEBF1B
:1011F0000FBECDBFDF91CF910F91FF90EF90DF90A9
:10120000CF90BF90AF9008958F929F92AF92BF9270
:10121000CF92DF92EF92FF920F931F93CF93DF93C2
:10122000EC0184E00E944829892B39F087E00E9474
:101230004829892B09F041C031C062E370E080E0A9
:1012400090E04EDD84E00E944829892B09F524E6D0
:1012500030E040E050E060EA7FE0CE01C896B3D4D1
:10126000FE01EC5EFC4F8081823040F0823081F4E0
:1012700085E08083CE010E940E170AC082E0808341
:10128000FE01EB5EFC4F11821082CE010E944516DA
:1012900084E00E944829892BD9F3C8CF62E370E02B
:1012A00080E090E01DDD87E00E944829892BE9F06D
:1012B00087E00E944829892BD9F38E01095E1C4FD3
:1012C000F8018080912CA12CB12CDBDCF2E3CF2E35
:1012D000D12CE12CF12CA70196010E948B298616B6
:1012E0009706A806B906C9F57BC024E630E040E0C1
:1012F00050E060EA7FE0CE01C89665D48E010C5EB6
:101300001C4FF80180818230D9F028F0853080F6BA
:10131000F8011082CDCF68EE73E080E090E0E0DC71
:10132000FE01EB5EFC4F1182108287E00E9448298B
:10133000892B11F484E001C083E0F8018083B8CFE9
:1013400086E00E944829892B21F0CE010E940E17C9
:10135000AFCFCE010E940617ABCF93DCA701960159
:101360000E948B29F801608361113AC08E010C5EE6
:101370001C4FF8018081833049F018F48230B1F0BD
:101380002FC0843051F0853089F02AC0CE012ADE8A
:10139000811126C0F801108204C0CE0123DE811124
:1013A0001FC0CB5EDC4F198218821AC0CE01A2DEAC
:1013B000811116C0F8011082FE01EB5EFC4F118214
:1013C0001082CE01DF91CF911F910F91FF90EF908E
:1013D000DF90CF90BF90AF909F908F900C94F61EAF
:1013E000DF91CF911F910F91FF90EF90DF90CF9001
:1013F000BF90AF909F908F900895CF93DF93EC01B3
:101400000E94D215CE0127DDCE01DF91CF91FCCE17
:101410002F923F924F925F926F927F928F929F9204
:10142000AF92BF92CF92DF92EF92FF920F931F93F2
:10143000CF93DF93CDB7DEB72B970FB6F894DEBF0F
:101440000FBECDBFCB01BA0128013901FE82ED826A
:10145000160120E030E040E251E40E948A2A4B016C
:101460005C0120E030E040E251E4C301B2010E949F
:101470008A2AA50194010E94F62969837A838B83C5
:101480009C8321E02B87C601AA2797FDA095BA2F40
:101490008F839887A987BA87EB856E2E712C2614C7
:1014A00037040CF458C0AB856A2F70E080E090E000
:1014B0000E94232B6B017C016F81788589859A8539
:1014C0000E94252B9B01AC01C701B6010E948A2A0C
:1014D0006B017C0183010150104C000F111F000FA4
:1014E000111FED81FE810E0F1F1F9B01AC010E9499
:1014F000592C29813A814B815C810E94592C2B0106
:101500003C0120E030E040E050ECC701B6010E9411
:10151000592C20E030E040E450E40E94F7299B0180
:10152000AC01C301B2010E94592C9B01AC01C50161
:10153000B4010E94F72920E030E040E251E40E942B
:10154000592CD8016D937D938D939C931397BB85F4
:10155000BF5FBB87A1CF2B960FB6F894DEBF0FBE3F
:10156000CDBFDF91CF911F910F91FF90EF90DF9052
:10157000CF90BF90AF909F908F907F906F905F9033
:101580004F903F902F9008952F923F924F925F92ED
:101590006F927F928F929F92AF92BF92CF92DF9283
:1015A000EF92FF920F931F93CF93DF93CDB7DEB7E8
:1015B000C854D1090FB6F894DEBF0FBECDBF1C01D1
:1015C0004BAF5CAF6DAF7EAF23960CAF1DAF2EAFB0
:1015D0003FAF2397CFAAD8AEE9AEFAAE8BAA9CAAAA
:1015E000ADAABEAA1DA61EA61FA618AA19A61AA6AF
:1015F0001BA61CA61DA21EA21FA218A619A21AA2F3
:101600001BA21CA21D8E1E8E1F8E18A2198E1A8E52
:101610001B8E1C8E1D8A1E8A1F8A188E198A1A8A92
:101620001B8A1C8A1D861E861F86188A19861A86A2
:101630001B861C861D821E821F82188619821A82B2
:101640001B821C8281E08F93CE010D969F938F9316
:101650009E012F5E3F4F490108965C01CFA8D8AC90
:10166000E9ACFAAC23960CAD1DAD2EAD3FAD239782
:101670004BAD5CAD6DAD7EADC1010E94DD19182F83
:101680006D897E898F89988D0E94D31569897A89A1
:101690008B899C890E94D3156D857E858F8598895D
:1016A0000E94D3150F900F900F90123011F482E02A
:1016B0006CC29E01275E3F4FAE01435E5F4FBE018D
:1016C0006F5D7F4FC1010E94D7169E012F5F3F4F74
:1016D000AE014B5F5F4FBE01675F7F4FC1010E944C
:1016E000161729A13AA14BA15CA16D897E898F892A
:1016F000988D0E94F6296B017C0120E030E0A90161
:101700000E944E2C26013701181624F077FA7094A7
:1017100077F870942D8D3E8D4F8D58A169897A8907
:101720008B899C890E94F6294B015C0120E030E006
:10173000A9010E944E2C181624F0B7FAB094B7F8FD
:10174000B094A5019401C301B2010E944E2C181659
:1017500084F420E030E0A901C701B6010E944E2CBC
:1017600018161CF4C701B60106C0C701B60190588F
:1017700002C0C501B4010E94F22A3B01882777FD0F
:101780008095982F0E94252B4B015C01298D3A8D65
:101790004B8D5C8D6D857E858F8598890E94F6299D
:1017A0006B017C0120E030E0A9010E944E2C18164C
:1017B00024F0F7FAF094F7F8F094A7019601C50128
:1017C000B4010E944E2C18162CF0C701B6010E94DD
:1017D000F22A3B01161417040CF069CF83010D3374
:1017E000110514F00CE310E089859A85AB85BC8562
:1017F00027968CAF9DAFAEAFBFAF27979C01AD01D1
:101800006BAD7CAD8DAD9EAD0E94F6292B013C01E8
:101810002D813E814F81588523966CAD7DAD8EAD77
:101820009FAD23970E94F6294B015C0129813A81E3
:101830004B815C816FA978AD89AD9AAD0E94F62984
:101840006B017C01A3019201C301B2010E94592CDA
:101850002B013C01A5019401C501B4010E94592C42
:101860009B01AC01C301B2010E94F7294B015C014D
:10187000A7019601C701B6010E94592C9B01AC013A
:10188000C501B4010E94F7290E94C62C4B015C01DE
:1018900020E030E048EC52E46BA97CA98DA99EA918
:1018A0000E94832A87FD11C020E030E04AE754E41B
:1018B0006BA97CA98DA99EA90E944E2C18166CF4C8
:1018C00080E090E0AAE7B4E404C080E090E0A8ECF7
:1018D000B2E48BAB9CABADABBEABB801882777FD58
:1018E0008095982F0E94252B6B017C012BA93CA988
:1018F0004DA95EA9C501B4010E948A2A20E030E00A
:101900004AE754E40E94592CA70196010E948A2AB2
:101910000E94F72A7CAB6BAB6531710550F180E01A
:1019200090E00E94232B20E030E040EA51E40E9446
:101930008A2A9B01AC01C701B6010E94592C6B0198
:101940007C0120E030E040E752E40E94832A87FFD8
:101950000AC0C701B6010E94F22A8B01E4E1F0E05F
:10196000FCABEBAB06C024E130E03CAB2BAB0CE3B3
:1019700010E038010D3311051CF01CE3612E712CB1
:10198000C1018C5B9F4F29969FAF8EAF2997A12CE9
:1019900063017C010BAD1CAD2DAD3EAD27964CAD6A
:1019A0005DAD6EAD7FAD2797C10132DDD101AC5C7D
:1019B000BE4F2596BFAFAEAF25974D815E816F813B
:1019C00078857D0123960CAD1DAD2EAD3FAD2397DF
:1019D000C1011EDDF101EC5DFD4F2196FFAFEEAFC1
:1019E000219749815A816B817C817F010FA918ADB4
:1019F00029AD3AADC1010CDD21011CAE1BAE9E012B
:101A00002B5D3F4F3AAB29ABEBADFCADE615F705CF
:101A10000CF07BC0F201EC5DFD4FC080D180E28014
:101A2000F380E05FF1090081118122813381E05F61
:101A3000F109408151816281738181E08F939AA97C
:101A40009F93A9A9AF93FE01B9964F01CE018D9640
:101A50005C01C1010E94DD1994E0490E511C0F90F8
:101A60000F900F90813029F58DA59EA5AFA5B8A93F
:101A7000F201E05CFF4F80839183A283B38389A549
:101A80009AA5ABA5BCA5E051FF4F80839183A283AB
:101A9000B3838DA19EA1AFA1B8A5E051FF4F808374
:101AA0009183A283B383ABADBCAD1196BCAFABAF9A
:101AB000ABCF0D891E892F89388D49A15AA16BA101
:101AC0007CA1A12C63012996EEACFFAC2997C10142
:101AD0009FDC09891A892B893C894D8D5E8D6F8D1C
:101AE00078A12596EEACFFAC2597C10191DC0D8560
:101AF0001E852F853889498D5A8D6B8D7C8D219659
:101B0000EEACFFAC2197C10183DC93012150310978
:101B1000220F331F220F331F220D331DF901EC5BFF
:101B2000FF4F8D899E89AF89B88D80839183A28371
:101B3000B383E051FF4F89899A89AB89BC8980833F
:101B40009183A283B383E051FF4F8D859E85AF853E
:101B5000B88980839183A283B383EBA9FCA9D101C7
:101B6000DF96FC93EE93DE97DD967C926E92DC9787
:101B7000DB961C921E92DA9784D8F101E05CFF4F4D
:101B8000608371838283938381E0C85BDF4F0FB6EC
:101B9000F894DEBF0FBECDBFDF91CF911F910F91A3
:101BA000FF90EF90DF90CF90BF90AF909F908F907D
:101BB0007F906F905F904F903F902F90089584E2B8
:101BC00092E001C90895211531054105510519F02B
:101BD00083E00C94EC23089565E471E08EE791E0D6
:101BE0000C9439048F929F92AF92BF92CF92DF9262
:101BF000EF92FF920F931F93CF93DF93CDB7DEB792
:101C00002C970FB6F894DEBF0FBECDBF4C0161E537
:101C100071E08EE791E00E943904F401A480B58060
:101C2000C680D780E080F1800281138183858F9305
:101C300082858F9381858F9380858F939E012F5FFF
:101C40003F4FAE014B5F5F4FBE01675F7F4F84E246
:101C500092E00E94FF17F40184849584A684B784DF
:101C6000C980DA80EB80FC800D811E812F81388550
:101C700049855A856B857C8584E292E085DC0F90EE
:101C80000F900F900F902C960FB6F894DEBF0FBEFA
:101C9000CDBFDF91CF911F910F91FF90EF90DF901B
:101CA000CF90BF90AF909F908F900895CF93DF9388
:101CB000EC0161E571E08EE791E00E9439046881F2
:101CC00079818A819B810E94F72A84E292E0DF91E8
:101CD000CF910C94EF1ECF93DF93EC0161E571E09F
:101CE0008EE791E00E943904688179818A819B8125
:101CF0000E94F72A84E292E0DF91CF91BCC70F9354
:101D00001F93CF93DF9300D000D0CDB7DEB78C0107
:101D100061E571E08EE791E00E943904F8012481C9
:101D200035814681578160817181828193812983C8
:101D30003A834B835C830E94F72A00E029813A8131
:101D40004B815C8184E292E00E94A8160F900F9074
:101D50000F900F90DF91CF911F910F9108950F93E6
:101D60001F93CF93DF9300D000D0CDB7DEB78C01A7
:101D700061E571E08EE791E00E943904F801248169
:101D80003581468157816081718182819381298368
:101D90003A834B835C830E94F72A01E029813A81D0
:101DA0004B815C8184E292E0D3D70F900F900F902B
:101DB0000F90DF91CF911F910F910895CF93DF93F3
:101DC000EC0161E571E08EE791E00E94390420E0CA
:101DD00030E0A901688179818A819B810E94832AF0
:101DE000811106C084E292E0DF91CF910C940E172E
:101DF00084E292E0DF91CF910C940617CF93DF93AA
:101E0000EC0161E571E08EE791E00E94390420E089
:101E100030E0A901688179818A819B810E94832AAF
:101E2000811105C084E292E0DF91CF91EBC784E29B
:101E300092E0DF91CF91E2C70F931F93CF93DF938F
:101E400000D000D0CDB7DEB78C0161E571E08EE740
:101E500091E00E94390420E030E04AE754E4F801C0
:101E600064817581868197810E94592C0E94F72A8E
:101E70009B01AC01F801608171818281938129838A
:101E80003A834B835C830E94F72A29813A814B81F4
:101E90005C818CE592E00F900F900F900F90DF9196
:101EA000CF911F910F918FCE61E571E08EE791E0A8
:101EB0000E94390484E292E085C88F929F92AF928B
:101EC000BF92CF92DF92EF92FF920F931F93CF9327
:101ED000DF93CDB7DEB72C970FB6F894DEBF0FBEF9
:101EE000CDBF4C0120E030E040E85FE3FC016485B9
:101EF0007585868597850E94832A811120C0F4010B
:101F0000A480B580C680D780E080F18002811381F3
:101F100083858F9382858F9381858F9380858F931F
:101F20009401285F3F4FA4014C5F5F4FB40184E2EE
:101F300092E00E94FF170F900F900F900F90F40106
:101F4000C084D184E284F3840481158126813781A1
:101F500040815181628173811F92CE0101969F93CE
:101F60008F9304964C01FE0139965F0184E292E062
:101F70000E94DD190F900F900F90823051F0833046
:101F800029F0813061F465E571E005C06AE571E032
:101F900002C06FE571E08EE791E00E9439042C9653
:101FA0000FB6F894DEBF0FBECDBFDF91CF911F916A
:101FB0000F91FF90EF90DF90CF90BF90AF909F90E8
:101FC0008F900895FC0160817181828193810E94CC
:101FD000F72A84E292E00E94D21C4AE050E0BC0161
:101FE0008EE791E00C94F1048F929F92AF92BF9292
:101FF000CF92DF92EF92FF920F931F93CF93DF93D5
:10200000EC01688179818A819B81CDD56C817D814C
:102010008E819F81C8D5688579858A859B85C3D542
:102020006C857D858E859F85BED58C849D84AE8490
:10203000BF84C884D984EA84FB840C811D812E81ED
:102040003F81488159816A817B8184E292E09CDAF8
:10205000823019F061E571E002C064E671E08EE75C
:1020600091E0DF91CF911F910F91FF90EF90DF9062
:10207000CF90BF90AF909F908F900C94390484E2E2
:1020800092E00E94E807882319F061E571E002C040
:1020900064E671E08EE791E00C94390482E00E94DE
:1020A0004829892B19F065E571E002C068E671E006
:1020B0008EE791E00C943904CF93DF93EC0161E556
:1020C00071E08EE791E00E94390420E030E040E8C2
:1020D0005FE36C817D818E819F810E94832A8111C3
:1020E00009C0688179818A819B810E94F72A862FA5
:1020F00061E008C0688179818A819B810E94F72A0A
:10210000862F60E0DF91CF910C941329EF92FF921C
:102110000F931F93CF93DF931F92CDB7DEB77C0150
:10212000FC0100811181C80169830E94532F6981DC
:10213000681719F0C8010E945B2FC7010F90DF914B
:10214000CF911F910F91FF90EF900895CF92DF9262
:10215000EF92FF920F931F93CF93DF9300D000D0A5
:1021600000D0CDB7DEB77C0161E571E08EE791E08C
:102170000E943904F70164817581868197810E94EC
:10218000F22A62307105E1F064307105E1F16130ED
:10219000710509F05EC0F7016085718582859385C0
:1021A0000E94F72A162FF701608171818281938145
:1021B0000E94F22ADC01CB01612F0E945B2F49C0F3
:1021C000F70160857185828593850E94F22A162F1A
:1021D0007E836D83F70160817181828193810E948A
:1021E000F22A6B017C01612FDA82C982CE0101964D
:1021F0008DDF6E81FFEFCF1ADF0ADA82C982CE014E
:10220000019684DF26C0F70140855185628573857C
:1022100049835A836B837C8360817181828193813E
:102220000E94F22A7B016E01F5E0CF0ED11C8E01D7
:102230000F5F1F4FE01AF10AC701800F911FF801CD
:1022400061918F019E838D83C60160DF0C151D0592
:1022500099F726960FB6F894DEBF0FBECDBFDF917B
:10226000CF911F910F91FF90EF90DF90CF90089545
:102270002F923F924F925F926F927F928F929F9296
:10228000AF92BF92CF92DF92EF92FF920F931F9384
:10229000CF93DF9300D000D000D0CDB7DEB78C0154
:1022A0005B016A014901312C2A0181E0481A510879
:1022B000E32CF12CEC14FD040CF048C035016E0C3D
:1022C0007F1CF3016081C8010E94E8272224239427
:1022D000280EFFEF2F1203C067EF70E00CC0E4146C
:1022E000F50479F0F3016181C8010E94E8278F3F6E
:1022F00059F464EF70E08EE791E00E94290481E0D8
:1023000026C0F80184818150EE0CFF1CEE0CFF1CEE
:10231000E80CF91C282F332727FD3095422D55272F
:1023200047FD5095B801CE0101960E94EB27CE01E2
:1023300001960E948A28F7016083718382839383C8
:10234000CE0101960E94C3263394B2CF80E0269638
:102350000FB6F894DEBF0FBECDBFDF91CF911F91B6
:102360000F91FF90EF90DF90CF90BF90AF909F9034
:102370008F907F906F905F904F903F902F90089537
:10238000EF92FF920F931F93CF93DF93CDB7DEB7FA
:10239000AF970FB6F894DEBF0FBECDBF7C0125E02E
:1023A00030E041E050E0BC01CE018A960E94EB276C
:1023B00021E030E040E050E0B701CE0184960E9479
:1023C000EB276DE671E0CE0184960E94AF2788234B
:1023D00009F442C00AEF10E04DE050E0B801CE0130
:1023E00041960E94262FBE016F5E7F4FCE018A96D6
:1023F0000E94AF27882321F10E891F89011511053D
:10240000B1F0B701CE014E960E9455279E012F5F75
:102410003F4FA801BE01685E7F4FCE014E9628DF78
:10242000182FCE014E960E94C326111106C0EC8DC6
:10243000FD8DCE01019609950FC06FE671E008C0D1
:10244000035F1F4F82E00C34180731F666E771E036
:102450008EE791E00E943904CE0184960E94C32643
:10246000CE018A960E94C326AF960FB6F894DEBFBF
:102470000FBECDBFDF91CF911F910F91FF90EF90D5
:102480000895CF92DF92EF92FF920F931F93CF9315
:10249000DF93D62FC72FF42EC52EE22E882319F0F6
:1024A00061EF70E002C06EEE70E08EE791E00E9496
:1024B000FC03DF2C0D2F1C2FCF2DDC2D8C2F8D1925
:1024C0008E1590F469918EE791E00E941F04F80147
:1024D00041915191619171918F0122E030E08EE73D
:1024E00091E00E94EB05EACF6CEE70E08EE791E0A0
:1024F000DF91CF911F910F91FF90EF90DF90CF90E0
:102500000C9429040F931F93CF93DF9300D01F9255
:10251000CDB7DEB78C0188E5898389E58A838AE5B2
:102520008B8361E084E292E00E94D51D9801285FD0
:102530003F4FA8014C5F5F4FB80184E292E076D430
:1025400023E0AE014F5F5F4FB80181E09ADF0F904B
:102550000F900F90DF91CF911F910F9108958F925F
:102560009F92AF92BF92CF92DF92EF92FF920F9322
:102570001F93CF93DF93CDB7DEB76B970FB6F89469
:10258000DEBF0FBECDBF8C0161E084E292E00E940D
:10259000D51D9E012F5F3F4FAE014B5F5F4FBE01C8
:1025A000675F7F4F84E292E041D49E01235F3F4FFB
:1025B000AE014F5E5F4FBE016B5E7F4F84E292E0E3
:1025C000F6D369857A858B859C85CD80DE80EF800A
:1025D000F8849B01AC010E94592C4B015C01A701BE
:1025E0009601C701B6010E94592C9B01AC01C5019F
:1025F000B4010E94F7290E94C62C23E5298F22E509
:102600002A8F28E42B8FF801608371838283938360
:102610008D899E89AF89B88D84839583A683B7837E
:1026200089819A81AB81BC8180879187A287B3879A
:1026300023E0AE01475E5F4FB80181E022DF6B9679
:102640000FB6F894DEBF0FBECDBFDF91CF911F91C3
:102650000F91FF90EF90DF90CF90BF90AF909F9041
:102660008F9008950F931F93CF93DF9300D000D0E6
:10267000CDB7DEB78C0182E489838CE48A8382E55E
:102680008B8388E48C8341E060E084E292E00E94E6
:102690002B1DF801608371838283938341E061E0A5
:1026A00084E292E00E942B1DF80164837583868387
:1026B000978341E062E084E292E00E942B1DF801E2
:1026C000608771878287938741E063E084E292E0CC
:1026D0000E942B1DF801648775878687978724E001
:1026E000AE014F5F5F4FB80181E0CBDE0F900F90DE
:1026F0000F900F90DF91CF911F910F9108950F933D
:102700001F93CF93DF9300D000D0CDB7DEB78C01FD
:1027100082E489838CE48A8382E58B8388E48C83DA
:1027200040E060E084E292E00E942B1DF8016083AB
:1027300071838283938340E061E084E292E00E94AF
:102740002B1DF801648375838683978340E062E0E4
:1027500084E292E00E942B1DF801608771878287D6
:10276000938740E063E084E292E00E942B1DF80131
:10277000648775878687978724E0AE014F5F5F4F38
:10278000B80181E07EDE0F900F900F900F90DF91E7
:10279000CF911F910F9108956F927F928F929F9288
:1027A000AF92BF92CF92DF92EF92FF920F931F935F
:1027B000CF93DF93CDB7DEB72F970FB6F894DEBF78
:1027C0000FBECDBF3C01FC01C084D184E284F38400
:1027D0000481158126813781408151816281738115
:1027E00081E08F93CE0101969F938F9304964C01C5
:1027F000FE0139965F0184E292E0DFD584E58D87A2
:102800008CE48E8782E58F8789859A85AB85BC8528
:10281000F30180839183A283B3838D819E81AF81F5
:10282000B88584839583A683B78389819A81AB8198
:10283000BC8180879187A287B38723E0AE01435F85
:102840005F4FB30181E01DDE0F900F900F902F9628
:102850000FB6F894DEBF0FBECDBFDF91CF911F91B1
:102860000F91FF90EF90DF90CF90BF90AF909F902F
:102870008F907F906F9008958F929F92AF92BF92AA
:10288000CF92DF92EF92FF920F931F93CF93DF933C
:10289000CDB7DEB72F970FB6F894DEBF0FBECDBF12
:1028A0004C01FC01A480B580C680D780E080F18017
:1028B0000281138183858F9382858F9381858F9386
:1028C00080858F939E012F5F3F4FAE014B5F5F4F1F
:1028D000BE01675F7F4F84E292E0EBD398E59D876E
:1028E00099E59E879AE59F8749855A856B857C8502
:1028F000F40140835183628373834D815E816F81D4
:102900007885448355836683778349815A816B81B7
:102910007C81408751876287738791E0833009F417
:1029200090E023E0AE01435F5F4FB401892FA9DD42
:102930000F900F900F900F902F960FB6F894DEBF68
:102940000FBECDBFDF91CF911F910F91FF90EF9000
:10295000DF90CF90BF90AF909F908F900895CF92CF
:10296000DF92EF92FF926A017B01882319F069EEF2
:1029700070E002C066EE70E08EE791E00E94FC031A
:1029800022E030E0B701A6018EE791E00E94EB055E
:1029900064EE70E08EE791E0FF90EF90DF90CF90D3
:1029A0000C942904CF93DF93EB01882319F061EE97
:1029B00070E002C06EED70E08EE791E00E94FC03D3
:1029C0004AE050E0BE018EE791E00E94DE046CED2B
:1029D00070E08EE791E0DF91CF910C942904FC0127
:1029E00060817181828193810E94F72A862F0E94E3
:1029F0004829BC0181E0D6CFFC01608171818281D0
:102A000093810E94F72A862F0E949428BC0181E0BE
:102A1000C9CFCF92DF92EF92FF920F931F93CF9384
:102A2000DF9300D000D0CDB7DEB78C01FC0164810C
:102A30007581868197810E94F22A62307105A1F02A
:102A400064307105A9F16130710509F063C0F801C6
:102A500060817181828193810E94F22ACB010E9460
:102A6000532F682F70E016C01A821982F801608116
:102A70007181828193810E94F22A6B017C01CB01DA
:102A80000E94532F8983C60101960E94532F8A8387
:102A900069817A8181E00F900F900F900F90DF9104
:102AA000CF911F910F91FF90EF90DF90CF907ACF51
:102AB00019821A821B821C82F801608171818281D5
:102AC00093810E94F22A6B017E01F5E0EF0EF11C6A
:102AD0008E010F5F1F4FC01AD10AC601800F911FD0
:102AE0000E94532FF80181938F01EE15FF05A9F77E
:102AF00049815A816B817C8181E00F900F900F900A
:102B00000F90DF91CF911F910F91FF90EF90DF9089
:102B1000CF9025CF0F900F900F900F90DF91CF9116
:102B20001F910F91FF90EF90DF90CF900895CF937A
:102B3000DF93CDB7DEB72C970FB6F894DEBF0FBE8C
:102B4000CDBF8EE791E00E94D901892B11F14DE5AF
:102B50006EE771E0CE0107960E94C823CE0107966A
:102B60000E942E286DE5CE0107960E949D27BE018A
:102B7000695F7F4FCE0101960E945527CE010196D5
:102B8000FFDBCE0101960E94C326CE0107960E946C
:102B9000C3262C960FB6F894DEBF0FBECDBFDF91D3
:102BA000CF910895C4CF80E090E00895CF92DF9256
:102BB000EF92FF920F931F93CF93DF9300D0CDB787
:102BC000DEB76C018B017C0184E0E80EF11CC601CC
:102BD00069837A830E94532FF80181938F01FFEF5D
:102BE000CF1ADF0A69817A81CE14DF0481F7CB0125
:102BF0000F900F90DF91CF911F910F91FF90EF9069
:102C0000DF90CF900895EF92FF920F931F93CF9391
:102C1000DF93EC018C017C018CE0E80EF11CC80113
:102C20000E9440220D5F1F4F0E151F05C1F780E166
:102C3000ECE0F1E0DE011C9601900D928A95E1F73F
:102C40008BE08CA78DE08DA78CE08EA78AE08FA704
:102C500082E088AB19AA81E08AAB83E08BAB82E388
:102C60008CAB8DAB8EAB8FABDF91CF911F910F9162
:102C7000FF90EF90089570E09B01220F331F260F05
:102C8000371F820F931F0C94D622CF93DF93EC0152
:102C90000E94D622CE0103960E94D622CE0106962D
:102CA0000E94D622CE010996DF91CF910C94D622B4
:102CB0008F929F92AF92BF92CF92DF92EF92FF924C
:102CC0000F931F93CF93DF93EC01CB01BA0148011F
:102CD00059016C877D878E879F872C8D3D8D4E8D0A
:102CE0005F8D0E94F729AB01BC01CE010E94132326
:102CF000888A998AAA8ABB8A28A139A14AA15BA19C
:102D0000C501B4010E94F729AB01BC01CE010396B5
:102D10000E941323CC8ADD8AEE8AFF8A2CA13DA172
:102D20004EA15FA1C701B6010E94F729AB01BC010A
:102D3000CE010696DF91CF911F910F91FF90EF90FA
:102D4000DF90CF90BF90AF909F908F900C94132303
:102D5000EF92FF920F93CF93DF93EC01E62FCA011E
:102D6000B901EE2EF12C9E0144E0E49F200D311DAF
:102D70001124F9016487758786879787002331F0CE
:102D8000248D358D468D578D0E94F7299701220F8E
:102D9000331F2E0D3F1DAB01BC01CE01820F931FCF
:102DA000DF91CF910F91FF90EF900C9413230F932D
:102DB0001F93CF93DF93FC01E901048515852685D8
:102DC0003785DB010D931D932D933C931397008959
:102DD000118922893389DA010D931D932D933C9338
:102DE000139784899589A689B78988839983AA834B
:102DF000BB83DF91CF911F910F91089560E089E02F
:102E00000C94132961E089E00C94132961E086E0B9
:102E10000E94132960E085E00C94132960E086E0AD
:102E20000E94132961E085E00C9413292F923F92B0
:102E30004F925F926F927F928F929F92AF92BF92CA
:102E4000CF92DF92EF92FF920F931F93CF93DF9376
:102E5000CDB7DEB728970FB6F894DEBF0FBECDBF53
:102E600098878F838B011A013E832D8326EE3EE2E5
:102E700045E652E4FC0160897189828993890E9448
:102E80008A2A4B015C010E94872A2B013C0126EE15
:102E90003EE245E652E4EF81F885648975898689CA
:102EA00097890E948A2A6B017C010E94872A698384
:102EB0007A838B839C8320E030E444E153E4C301B4
:102EC000B2010E94592C2B013C0123E333E340E281
:102ED00053E469817A818B819C810E94592C9B01EA
:102EE000AC01C301B2010E94F72929E23CE549EA9D
:102EF00051E40E94F72920E030E048EC51E40E94C0
:102F0000F7292B013C01C501B4010E94BC2C4B01E7
:102F10005C01C701B6010E94BC2C6B017C0126EE4E
:102F20003EE245E652E4EF81F88564857585868545
:102F300097850E948A2A0E94872A9B01AC01C301BF
:102F4000B2010E94592CF8016083718382839383BC
:102F500026EE3EE245E652E4EF81F885648575850C
:102F6000868597850E948A2A0E94BC2C9B01AC0111
:102F7000C301B2010E94592CF101608371838283E5
:102F8000938320E030E444E153E4C501B4010E949E
:102F9000592C4B015C0123E333E340E253E4C701C6
:102FA000B6010E94592C9B01AC01C501B4010E94DD
:102FB000F62920E030E044EB52E40E94F729ED814D
:102FC000FE81608371838283938381E028960FB6AC
:102FD000F894DEBF0FBECDBFDF91CF911F910F914F
:102FE000FF90EF90DF90CF90BF90AF909F908F9029
:102FF0007F906F905F904F903F902F9008952F9209
:103000003F924F925F926F927F928F929F92AF9278
:10301000BF92CF92DF92EF92FF920F931F93CF93C5
:10302000DF93CDB7DEB73B014A01170128018D8937
:103030009E89AF89B88DF90180839183A283B38380
:1030400026EE3EE245E652E4C601B5010E948A2A18
:103050006B017C010E94872A9B01AC01C201B10176
:103060000E94592CF3016083718382839383C7018B
:10307000B6010E94BC2C9B01AC01C201B1010E94AF
:10308000592CF4016083718382839383DF91CF9104
:103090001F910F91FF90EF90DF90CF90BF90AF9076
:1030A0009F908F907F906F905F904F903F902F9068
:1030B00008952F923F924F925F926F927F928F92DC
:1030C0009F92AF92BF92CF92DF92EF92FF920F93B7
:1030D0001F93CF93DF93CDB7DEB72C970FB6F8943D
:1030E000DEBF0FBECDBF1B015E834D8338872F83AC
:1030F000E986FA860B871C87C601B50126EE3EE2FB
:1031000045E652E40E948A2A4B015C010E94872A0C
:103110002B013C0126EE3EE245E652E469A17AA18C
:103120008BA19CA10E948A2A6B017C010E94872AA4
:1031300069837A838B839C8320E030E444E153E409
:10314000C301B2010E94592C2B013C0123E333E35C
:1031500040E253E469817A818B819C810E94592CE1
:103160009B01AC01C301B2010E94F72929E23CE5B1
:1031700049EA51E40E94F72920E030E048EC51E4AC
:103180000E94F7292B013C01C501B4010E94BC2C0F
:103190004B015C01C701B6010E94BC2C69837A8394
:1031A0008B839C8326EE3EE245E652E469857A8570
:1031B0008B859C850E948A2A6B017C010E94872A4C
:1031C0009B01AC01C301B2010E94592CF101608343
:1031D000718382839383C701B6010E94BC2C9B013B
:1031E000AC01C301B2010E94592CED81FE816083C4
:1031F00071838283938320E030E444E153E4C5018A
:10320000B4010E94592C6B017C0123E333E340E2BB
:1032100053E469817A818B819C810E94592C9B01A6
:10322000AC01C701B6010E94F62920E030E044EB72
:1032300052E40E94F729EF81F885608371838283CD
:10324000938381E02C960FB6F894DEBF0FBECDBFFE
:10325000DF91CF911F910F91FF90EF90DF90CF9072
:10326000BF90AF909F908F907F906F905F904F90A6
:103270003F902F9008954F925F926F927F928F921E
:103280009F92AF92BF92CF92DF92EF92FF92CF9335
:10329000DF93EC017A015901FB0160817181828128
:1032A00093819B01AC010E94072D81111AC0F70187
:1032B000C080D180E280F380A7019601C701B601EA
:1032C0000E94072D81110DC0F50180809180A280A0
:1032D000B380A5019401C501B4010E94072D882384
:1032E00011F082E05BC028A139A14AA15BA1C7010E
:1032F000B6010E94F7292B013C0120E030E040EAB2
:1033000050E40E94832A87FD0AC020E030E040EFAD
:1033100052E4C301B2010E944E2C181614F483E04B
:103320003DC02CA13DA14EA15FA1C501B4010E94E9
:10333000F7292B013C0120E030E040EA50E40E94F4
:10334000832A87FDECCF20E030E040EF52E4C30158
:10335000B2010E944E2C181614F3A701960160E0EA
:1033600070E084E393E40E94F629A50194010E9491
:10337000F6296B017C0120E030E046E153E40E9435
:103380004E2C181664F220E030E040EF51E4C70103
:10339000B6010E94832A87FDC2CF81E0DF91CF91E1
:1033A000FF90EF90DF90CF90BF90AF909F908F9065
:1033B0007F906F905F904F9008952F923F924F9221
:1033C0005F926F927F928F929F92AF92BF92CF92B5
:1033D000DF92EF92FF920F931F93CF93DF93CDB7BE
:1033E000DEB729970FB6F894DEBF0FBECDBF988722
:1033F0008F832A013B0109831A832B833C831501A8
:103400009E828D820E8D1F8D88A1898720E030ECF1
:103410004CE455ECC301B2010E94832A87FD12C01F
:1034200020E030EC4CE455E4C301B2010E944E2C84
:1034300018167CF4412CF0EC5F2EFCE46F2EF5E4C2
:103440007F2E07C0412CE0EC5E2EECE46E2EE5EC06
:103450007E2E20E030EC4CE455EC69817A818B8142
:103460009C810E94832A87FD11C020E030EC4CE44F
:1034700055E469817A818B819C810E944E2C1816BB
:103480006CF480E090ECACE4B5E404C080E090EC37
:10349000ACE4B5EC89839A83AB83BC8320E030EC49
:1034A0004CE455ECC701B6010E94832A87FD12C087
:1034B00020E030EC4CE455E4C701B6010E944E2CEC
:1034C00018167CF4C12C70ECD72E7CE4E72E75E442
:1034D000F72E07C0C12C60ECD62E6CE4E62E65EC0E
:1034E000F62E20E030E040E251E4C301B2010E9438
:1034F000592C0E94F22A882777FD8095982F0E94E8
:10350000252B20E030E040E251E40E948A2A2B0182
:103510003C0120E030E040E251E469817A818B8116
:103520009C810E94592C0E94F22A882777FD809561
:10353000982F0E94252B20E030E040E251E40E94C9
:103540008A2A4B015C0120E030E040E251E4C701EF
:10355000B6010E94592C0E94F22A882777FD809597
:10356000982F0E94252B20E030E040E251E40E9499
:103570008A2A20E030E044EB52E40E94F62920E061
:1035800030E444E153E40E948A2A6B017C0199856E
:10359000911109C020E030E0A901C501B4010E94E9
:1035A000832A87FD5EC120E030E0A901C301B2019A
:1035B0000E94832A81110AC080E090E0A4EBB2E46B
:1035C000F10180839183A283B3833FC020E030E088
:1035D000A901C301B2010E944E2C1816A4F4A30144
:1035E0009201C501B4010E948A2A0E945B2A26EE3C
:1035F0003EE245E652E40E94592CD1016D937D9341
:103600008D939C93139720E030E0A901C301B20190
:103610000E94832A87FF19C0A3019201C501B4014A
:103620000E948A2A0E945B2A26EE3EE245E652E488
:103630000E94592C20E030E044E353E40E94F72933
:10364000F1016083718382839383D1018D919D9178
:103650000D90BC91A02D89839A83AB83BC8320E01D
:1036600030E044EB52E4BC01CD010E94832A882360
:10367000B9F026EE3EE245E652E469817A818B811B
:103680009C810E948A2A0E94872A9B01AC01C30167
:10369000B2010E948A2A29E23CE549EA51E406C0C7
:1036A00029E23CE549EA51E4C501B4010E94F6294A
:1036B00020E030E048EC51E40E94F62920E030E4BC
:1036C00044E153E40E948A2A4B015C019B01AC0156
:1036D000C701B6010E948A2A0E945B2A26EE3EE2BA
:1036E00045E652E40E94592C2B013C01A7019601AA
:1036F000C701B6010E94592C6B017C01A501940100
:10370000C501B4010E94592C9B01AC01C701B6014F
:103710000E94F7290E94C62C6B017C019B01AC0121
:103720000E94592C4B015C0123E937E745E95FE32F
:103730000E94F72920E030E040E85FE30E94F6298C
:1037400069837A838B839C8325E531E54AE050E4E5
:10375000C701B6010E94592C9B01AC0169817A8195
:103760008B819C810E948A2A0E94E82926EE3EE2F3
:1037700045E652E40E94592CF801608371838283EC
:10378000938320E030E040E85FE3C501B4010E948C
:10379000F72923E937E745E95FE30E94F6294B0162
:1037A0005C01A7019601C701B6010E94F7299B01A0
:1037B000AC01C501B4010E948A2A0E94E82926EEC4
:1037C0003EE245E652E40E94592CA30192010E9478
:1037D000F729AD81BE816D937D938D939C93139753
:1037E000A3019201F80160817181828193810E941D
:1037F000F629D8016D937D938D939C931397F101D6
:103800006081718182819381CED9AD81BE816D91BC
:103810007D918D919C91C7D9F801608171818281E0
:103820009381C1D998014D815E81B1018F819885C5
:1038300029960FB6F894DEBF0FBECDBFDF91CF91B2
:103840001F910F91FF90EF90DF90CF90BF90AF90BE
:103850009F908F907F906F905F904F903F902F90B0
:103860000ACD82E029960FB6F894DEBF0FBECDBF19
:10387000DF91CF911F910F91FF90EF90DF90CF904C
:10388000BF90AF909F908F907F906F905F904F9080
:103890003F902F9008950F931F93CF93DF9389014B
:1038A00084E0689FE0011124BA01CE018A5B9F4F3A
:1038B0007DD9B801CE01C296DF91CF911F910F91B2
:1038C00075C90F931F93CF93DF93CDB7DEB72897BA
:1038D0000FB6F894DEBF0FBECDBF8A011D821E82D7
:1038E0001F82188619821A821B821C829E012F5FFA
:1038F0003F4FAE014B5F5F4FCEDFB801882777FDAA
:103900008095982F0E94252B29813A814B815C81DB
:103910000E94592C2D813E814F8158850E94F729A4
:1039200028960FB6F894DEBF0FBECDBFDF91CF91C2
:103930001F910F910895EF92FF920F931F93CF93D2
:10394000DF93E12C8A01015011098E2D90E084173C
:10395000950708F5F12CEF2DF0E09C012E0F3F1F8D
:1039600020173107B0F4EE0FFF1FDB01AE0FBF1FB2
:103970002D913C9111973296E60FF71FC081D181AE
:10398000C217D30720F4CD93DC9331832083F394C3
:10399000E2CFE394DACFDF91CF911F910F91FF90A7
:1039A000EF9008959F92AF92BF92CF92DF92EF92E5
:1039B000FF920F931F93CF93DF93CDB7DEB761973D
:1039C0000FB6F894DEBF0FBECDBF6C018E010F5F46
:1039D0001F4F5E0181E1A80EB11C902E712F760160
:1039E000E60EF11CE0E3EE0EF11CF7018081798B0D
:1039F0000E949428F801819391938F017989EA15A7
:103A0000FB0599F748E050E0692DC60194DF8F81EE
:103A100098852D813E81820F931F29853A85820FDB
:103A2000931F2B853C85820F931F969587959695BE
:103A3000879561960FB6F894DEBF0FBECDBFDF91BC
:103A4000CF911F910F91FF90EF90DF90CF90BF909B
:103A5000AF909F9008958F929F92AF92BF92CF9216
:103A6000DF92EF92FF920F931F93CF93DF93EC01BE
:103A7000962E842E83E0681323C063E0CE0192DF8C
:103A8000BC0180E090E01F921F921F9224EB2F93C5
:103A9000A12CB12C65011CECE12EFF24F39400E075
:103AA00010E022E630E040E050E00E947E260E94D6
:103AB000252B6B017C010F900F900F900F9008C089
:103AC000CE0170DFAC01692DCE01FBDE6B017C0104
:103AD000882079F084E0989EC00DD11D11242C8D92
:103AE0003D8D4E8D5F8DC701B6010E94F6296B0199
:103AF0007C0120E030E0A901C701B6010E94832AC1
:103B000087FD11C020E030E044E353E4C701B60173
:103B10000E944E2C181654F4C12CD12CC4E3EC2E68
:103B2000C3E4FC2E03C0C12CD12C7601C701B60121
:103B3000DF91CF911F910F91FF90EF90DF90CF9089
:103B4000BF90AF909F908F900895AF92BF92CF9209
:103B5000DF92EF92FF920F93CF93DF937C015B0193
:103B60006A01E901402F60E076DFF501608371832F
:103B700082839383402F61E0C7016DDFF60160838C
:103B8000718382839383402F62E0C70164DF68837F
:103B900079838A839B83DF91CF910F91FF90EF9080
:103BA000DF90CF90BF90AF900895EF92FF920F9368
:103BB0001F93CF93DF93F82E092FE62EC82FD92F0E
:103BC00010E04E2D612F8F2D902F45DF6C877D8764
:103BD0008E879F871F5F2496143099F7DF91CF91CE
:103BE0001F910F91FF90EF900895CF93DF9300D036
:103BF00000D0CDB7DEB719821A821B821C8224E066
:103C0000629FC0011124BE016F5F7F4F4E960E94DC
:103C1000D61569817A818B819C810F900F900F90CE
:103C20000F90DF91CF9108958F929F92AF92BF92A4
:103C3000CF92DF92EF92FF920F931F93CF93DF9378
:103C4000EC01862E912C633019F5ACDEBC0180E0CE
:103C500090E01F921F921F9224EB2F93A12CB12C66
:103C600065011CECE12EFF24F39400E010E022E655
:103C700030E040E050E00E947E260E94252B688FB5
:103C8000798F8A8F9B8F0F900F900F900F900EC09F
:103C900041E0E1DEF4013396EE0FFF1FEE0FFF1F50
:103CA000EC0FFD1F60837183828393838BE090E030
:103CB0000E94532FF401EE0FFF1FEE0FFF1FEC0FBA
:103CC000FD1F803879F080E090E0A0E7B2E48487BF
:103CD0009587A687B7879C01AD01648D758D868D0C
:103CE000978D08C0248D358D468D578D64857585DB
:103CF000868597850E94F729AB01BC01C401880F16
:103D0000991F880D991D8C0F9D1FDF91CF911F91D9
:103D10000F91FF90EF90DF90CF90BF90AF909F906A
:103D20008F9081C41F93CF93DF93EC0110E0612F3C
:103D3000CE017ADF1F5F1430D1F7DF91CF911F9151
:103D40000895AF92BF92DF92EF92FF920F931F936D
:103D5000CF93DF931F92CDB7DEB75C01D62E7901EA
:103D6000062F10E0FC01E00FF11F60A949831ADE65
:103D70004981E816F90640F5642F70E0C801880F04
:103D8000991F23E0800F911FD21211C020E639E065
:103D900048E552E08A0D9B1D0F90DF91CF911F9156
:103DA0000F91FF90EF90DF90BF90AF9082C38A0D8C
:103DB0009B1D0F90DF91CF911F910F91FF90EF907E
:103DC000DF90BF90AF90EDC30F90DF91CF911F9127
:103DD0000F91FF90EF90DF90BF90AF900895FC019E
:103DE000E60FF11D24A930E044A5ABCF1F93CF937C
:103DF000DF93EC0110E0612FCE01F1DF1F5F143083
:103E0000D1F7DF91CF911F9108955F926F927F92CA
:103E10008F929F92AF92BF92CF92DF92EF92FF92DA
:103E20000F931F93CF93DF9300D000D01F92CDB795
:103E3000DEB73C018C01AEE1CA2ED12C512C4E01D3
:103E400085E0880E911C652DC301CFDE69837A83DE
:103E50008B839C839B01AC010E94072D811132C092
:103E600069817A818B819C81F801648F758F868F3F
:103E7000978F0E94D31553940C5F1F4FF4E0CF0E21
:103E8000D11C84E05812DFCF68EE73E080E090E050
:103E90000E947006C301AADFC3010F900F900F901C
:103EA0000F900F90DF91CF911F910F91FF90EF90A6
:103EB000DF90CF90BF90AF909F908F907F906F904A
:103EC0005F9030CF19821A821B821C827601FE011C
:103ED00031965F01F50161915F01C7016D830E9419
:103EE000532F6D81681719F0C7010E945B2FFFEFF8
:103EF000EF1AFF0AA814B90469F7B2CF0895459ADA
:103F0000449A44984598089545984498459A449A07
:103F1000089547B13C98449A459A36B1232F2071B1
:103F2000459834FF03C0F0DF21E001C047B9822F7C
:103F3000089587B13C9A4498459A459887B9449A20
:103F4000089588E067FF02C0449A01C04498660F54
:103F5000459A45988150B1F7089527B13C9898E06B
:103F600080E0459A880F34998160459827B991502F
:103F7000C1F70895AF92BF92CF92DF92EF92FF9276
:103F80000F931F93CF93DF9300D0CDB7DEB75C01C3
:103F90007B01122F87B1806387B988B1806388B9AC
:103FA000C5013A834983ABDF4981642FC501C9DF6D
:103FB000C501AFDF3A8181112AC0632FC501C1DF7E
:103FC000C501A7DF811123C0612FC501BADFC5017B
:103FD000A0DF182F81111BC0C02ED12C0023A1F00F
:103FE000F601E01BF109EE0DFF1D6081C501A9DF9F
:103FF0000150C5018EDF81110AC065E070E080E0EC
:1040000090E00E947006EACFC5017EDF01C011E09A
:10401000812F0F900F90DF91CF911F910F91FF9003
:10402000EF90DF90CF90BF90AF900895AF92BF9286
:10403000CF92DF92EF92FF920F931F93CF93DF9374
:104040001F92CDB7DEB77C015B016A01562F5F7707
:104050005C37E8F025303105D1F410E8151B012F4D
:104060009B0140EAB601598385DF65E070E080E09E
:1040700090E00E947006612F70E0598105E8050FFD
:104080009B012A0D3B1D6C0D7D1D40EA04C0022FD3
:10409000950140EAB601C7016DDF0F90DF91CF9126
:1040A0001F910F91FF90EF90DF90CF90BF90AF9056
:1040B00008958F929F92AF92BF92CF92DF92EF922C
:1040C000FF920F931F93CF93DF931F92CDB7DEB76D
:1040D0004C015B01142FF22E87B1806387B988B140
:1040E000806388B9C40139830ADF612FC40129DFE5
:1040F000C4010FDF398181110EC0632FC40121DF9C
:10410000C40107DF811107C06F2DC4011ADFC4018C
:1041100000DF882311F011E01FC0C401F0DE61E070
:10412000610FC4010EDFC401F4DE182F8111F3CF3B
:10413000C02ED12C002371F07601E01AF108EA0CB0
:10414000FB1CC4010ADFF7018083015019F0C40190
:10415000F0DEF0CFC401D8DE812F0F90DF91CF9138
:104160001F910F91FF90EF90DF90CF90BF90AF9095
:104170009F908F900895AF92BF92CF92DF92EF926F
:10418000FF920F931F93CF93DF931F92CDB7DEB7AC
:104190007C015B016A01562F5F775C37E8F02530C0
:1041A0003105D1F410E8151B012F9B0140EAB6013F
:1041B00059837FDF65E070E080E090E00E94700648
:1041C000612F70E0598105E8050F9B012A0D3B1D09
:1041D0006C0D7D1D40EA04C0022F950140EAB60136
:1041E000C70167DF0F90DF91CF911F910F91FF9073
:1041F000EF90DF90CF90BF90AF9008951F920F92F5
:104200000FB60F9211242F933F934F935F936F93A9
:104210007F938F939F93AF93BF93CF93DF93EF934E
:10422000FF9380913D0587FF05C010928500109295
:10423000840016C020913D05332727FD30958091DD
:104240003C0590E0281739075CF430913D0526E0E5
:104250003203D0011124A25CBA4F8C9186FD15C0A7
:1042600080913D058F5F80933D0520913D0533276B
:1042700027FD309580913C0590E0281739078CF494
:1042800080913D058C302CF10CC030913D053203FE
:10429000F0011124E25CFA4F808160E08F73C3D794
:1042A000DFCF8091840090918500049680349C49F2
:1042B00018F480E49CE905C0809184009091850009
:1042C000049690938900809388008FEF80933D053A
:1042D000C4C030913D0526E03203F0011124E25CB8
:1042E000FA4F8581882309F48DC030913D054091B6
:1042F0003D054203D0011124A25CBA4F11968D9165
:104300009C9112973203F0011124E25CFA4F438131
:10431000548130913D058417950768F540913D051E
:104320004203F0011124E25CFA4F81819281320351
:10433000D0011124A25CBA4F15963C91830F911DB8
:104340009283818330913D0540913D054203E00118
:104350001124C25CDA4F89819A813203D001112481
:10436000A25CBA4F13964D915C91149784179507F0
:1043700008F448C02BC040913D054203F0011124D0
:10438000E25CFA4F818192813203D0011124A25C58
:10439000BA4F15963C91831B91099283818330918A
:1043A0003D0540913D054203E0011124C25CDA4F16
:1043B00089819A813203D0011124A25CBA4F1396ED
:1043C0004D915C91149748175907E0F030913D05E5
:1043D00040913D054203E0011124C25CDA4F8B811C
:1043E0009C813203D0011124A25CBA4F12969C9397
:1043F0008E93119730913D053203F0011124E25C58
:10440000FA4F1582209184003091850050913D052E
:1044100046E05403D0011124A25CBA4F11968D914D
:104420009C911297820F931F90938900809388002C
:1044300020913D052403D0011124A25CBA4F8C9138
:1044400086FF0BC020913D052403F0011124E25C9E
:10445000FA4F808161E08F73E6D6FF91EF91DF9193
:10446000CF91BF91AF919F918F917F916F915F910C
:104470004F913F912F910F900FBE0F901F90189565
:10448000E0913C05EC3088F421E02E0F20933C05B0
:10449000DC01EC93B6E0EB9FF0011124E25CFA4FF3
:1044A00088EB9BE09283818308952FEFFC012083AA
:1044B0000895DF92EF92FF920F931F93CF93DF93B4
:1044C000EC01D62E7A01890188818C3008F060C019
:1044D00061E08D2D6FD6888196E0899FF0011124CF
:1044E000E25CFA4F2D2D2F739081907C922B90835C
:1044F00064EF71E06E197F0977FF02C06D5F7F4F37
:104500007595679575956795698344EC59E0401BEF
:10451000510B57FF02C04D5F5F4F5595479555951D
:1045200047954A836CE0EBD69CE0899FA00111245B
:1045300020E030E096E0B901640F751F969FF0010E
:10454000979FF00D1124E25CFA4F608166FD16C062
:104550002F5F3F4F2C30310571F781110FC0109242
:10456000800082E080938100109285001092840088
:10457000B19A80916F00826080936F00E88186E03D
:10458000E89FF0011124E25CFA4F8081806480830F
:104590008881DF91CF911F910F91FF90EF90DF9075
:1045A000089524EC39E044EF51E083CFDC01EC9135
:1045B000B6E0EB9FF0011124E25CFA4F80818F7B23
:1045C00080830895FC0180818C3060F591812DE716
:1045D00030E0291B310997FD3395220F331F220F3D
:1045E000331F621773077CF0928121E732E0291BA9
:1045F000310997FD3395220F331F220F331F6217A6
:1046000073070CF49B0122503109220F331F9FB70F
:10461000F89446E0849FF0011124E25CFA4F328363
:1046200021839FBF08954F925F926F927F92AF92C6
:10463000BF92CF92DF92EF92FF920F931F93CF938F
:10464000DF93EC012A013B0120E030E04AEF53E424
:10465000C301B20158D787FF5AC020E030E0A9015A
:10466000C301B20150D787FD11C020E030E044E320
:1046700053E4C301B2010E944E2C181654F4412C8D
:10468000512C34E3632E33E4732E03C0412C512CA0
:10469000320189812DE730E0281B310987FD3395F0
:1046A000220F331F220F331F5901CC24B7FCC094B3
:1046B000DC2C20E030E040E251E4C301B2010E9472
:1046C000592C90D72A8141E752E0421B510927FD1E
:1046D0005395440F551F440F551F2A01662457FC5C
:1046E0006094762C7F926F925F924F9218E0E12E49
:1046F00017E0F12E00E010E020E030E0A901FED24A
:10470000A4D72B013C010F900F900F900F90C30185
:10471000B20168D7CE01DF91CF911F910F91FF9029
:10472000EF90DF90CF90BF90AF907F906F905F90B1
:104730004F9048CF0F931F93CF93DF93EC010E94CC
:104740004106688779878A879B87E881F981068097
:10475000F781E02DCE01099597FF15C00E94410613
:10476000088519852A853B85601B710B820B930B8D
:104770000C811D812E813F8160177107820793078D
:1047800020F38FEF9FEFDF91CF911F910F9108954D
:10479000EF92FF920F931F93CF93DF93EC018B0166
:1047A000E42E66E371E057D3C801C4DFFF24E7FCC1
:1047B000F09497FD09C08E159F0531F0682FCE014A
:1047C000BCD3C801B7DFF5CFCE01DF91CF911F91E8
:1047D0000F91FF90EF9008953F924F925F926F92EA
:1047E0007F928F929F92AF92BF92CF92DF92EF9281
:1047F000FF920F931F93CF93DF9300D000D0CDB7DC
:10480000DEB78B0129013A0190910A01981721F036
:104810009F3F09F0CFC104C0ECE4F2E0349081C0C6
:1048200080930A01ECE4F2E0E491EF3F09F4C2C1A5
:10483000E13031F1E23009F44BC0E11171C014BC38
:1048400015BC94B5926094BD95B5916095BD282F27
:1048500030E0F901EB58FD4FE491F0E0EE0FFF1F5F
:10486000ED56FD4F45915491509396054093950513
:10487000F901EF59FD4F249120939405312C53C039
:104880001092800010928100909181009860909326
:10489000810090918100916090938100282F30E0F9
:1048A000F901EB58FD4FE491F0E0EE0FFF1FED56DC
:1048B000FD4F4591549150938F0540938E05F9011A
:1048C000EF59FD4F249120938D05332433942BC051
:1048D0001092B0001092B1009091B000926090934D
:1048E000B0009091B10091609093B100282F30E01A
:1048F000F901EB58FD4FE491F0E0EE0FFF1FED568C
:10490000FD4F459154915093880540938705F901D7
:10491000EF59FD4F24912093860552E0352E03C0B8
:104920003E2E37FC47C161E045D44801A12CB12C93
:10493000832D8D7F09F0C1C060E072E18AE790E0CD
:10494000A50194010AD529833A834B835C836901CD
:104950007A0181E0C81AD108E108F1089FEFC91671
:10496000D104E104F10409F008F495C060E472E4B4
:104970008FE090E0A5019401F0D469017A01E1E0B3
:10498000CE1AD108E108F108F2E03F1218C08FEF0B
:10499000C816D104E104F10409F008F486C060E906
:1049A00070ED83E090E0A5019401D7D469017A010C
:1049B00091E0C91AD108E108F10883E001C082E062
:1049C000EFEFCE16D104E104F10409F008F464C05D
:1049D00068E478EE81E090E0A5019401BED469011D
:1049E0007A01F1E0CF1AD108E108F1083320D9F0BB
:1049F00082E038121AC09FEFC916D104E104F10415
:104A000009F008F4D5C064E274EF80E090E0A501FD
:104A10009401A3D469017A01E1E0CE1AD108E1083A
:104A2000F10885E003C083E001C084E0FFEFCF160A
:104A3000D104E104F10481F178F162E17AE780E0E8
:104A400090E0A501940189D469017A0181E0C81A36
:104A5000D108E108F108311002C084E001C086E00D
:104A60009FEFC916D104E104F104B1F0A8F0C980A8
:104A7000DA80EB80FC809AE0F594E794D794C794B1
:104A80009A95D1F7E1E0CE1AD108E108F108332078
:104A900031F087E00BC081E0332011F007C085E0E2
:104AA00095B5987F982B95BD36C082E09091B10066
:104AB000987F982B9093B1002EC060E072E18AE756
:104AC00090E0A501940149D469017A01F1E0CF1A7F
:104AD000D108E108F108C114D10481E0E806F1042D
:104AE00080F068E478EE81E090E0A501940135D48F
:104AF00069017A0191E0C91AD108E108F10893E04F
:104B000001C091E0E1E03E1206C080918100887F03
:104B1000892B80938100411451046104710461F078
:104B2000D801AA0FBB1FA301920133D428EE33E0B2
:104B300040E050E0F0D303C02FEF3FEFA901F1E0D8
:104B40003F16A1F082E0381619F1311033C0C7BC0E
:104B500020939705309398054093990550939A05B3
:104B600080916E00826080936E0024C0D092890094
:104B7000C092880020939005309391054093920550
:104B80005093930580916F00826080936F0012C0F4
:104B9000C092B3002093890530938A0540938B051A
:104BA00050938C058091700082608093700002C0E9
:104BB00084E07CCF0F900F900F900F90DF91CF91FA
:104BC0001F910F91FF90EF90DF90CF90BF90AF902B
:104BD0009F908F907F906F905F904F903F9008953F
:104BE000813039F018F0823051F0089510926E0043
:104BF000089580916F008D7F80936F00089580915C
:104C000070008D7F8093700081E08093B000809170
:104C1000B100887F84608093B1001092B300089542
:104C2000CF93C82F80910A018C1307C0ECE4F2E007
:104C300084919FEF90930A0101C08FEFD1DF60E074
:104C40008C2FCF91F0C21F920F920FB60F921124AA
:104C50002F933F934F935F936F937F938F939F9384
:104C6000AF93BF93EF93FF938091890590918A054D
:104C7000A0918B05B0918C05892B8A2B8B2B51F140
:104C800090918605E0918705F091880580818927BC
:104C900080838091890590918A05A0918B05B091C0
:104CA0008C05181619061A061B06BCF48091890596
:104CB00090918A05A0918B05B0918C050197A1096F
:104CC000B1098093890590938A05A0938B05B093D1
:104CD0008C0503C080910A01A3DFFF91EF91BF9182
:104CE000AF919F918F917F916F915F914F913F9184
:104CF0002F910F900FBE0F901F9018954F925F92BB
:104D00006F927F92AF92BF92CF92DF92EF92FF921B
:104D10000F931F93CF93DF93CDB7DEB729013A01ED
:104D2000621B730B840B950B29893A894B895C892B
:104D30002A193B094C095D09298B3A8B4B8B5C8BFB
:104D40009B01AC0169897A898B899C89C9D2E41855
:104D5000F50806091709A8019701FFD22A0D3B1D86
:104D60004C1D5D1DCA01B901DF91CF911F910F91BB
:104D7000FF90EF90DF90CF90BF90AF907F906F90BB
:104D80005F904F900895FC018081918102C7CF937D
:104D9000DF93EC0188819981009709F0FAD6198296
:104DA00018821D821C821B821A82DF91CF91089586
:104DB0000F931F93CF93DF93EC018B016F5F7F4FB6
:104DC0008881998175D7009731F0998388831B83F7
:104DD0000A8381E001C080E0DF91CF911F910F91A4
:104DE0000895CF93DF93EC0188819981892B29F075
:104DF0008A819B818617970758F4CE01D9DF8823D3
:104E000041F08C819D81892B19F4E881F981108210
:104E100081E0DF91CF910895EF92FF920F931F935E
:104E2000CF93DF93EC017B018A01BA01DADF8111B4
:104E300003C0CE01ACDF07C01D830C83B70188819E
:104E400099810E944C2FCE01DF91CF911F910F913C
:104E5000FF90EF900895FC0111821082138212825C
:104E6000158214826115710551F0FB01019000203B
:104E7000E9F7AF0141505109461B570BCDCF0895BB
:104E8000CF93DF93EC01FB018617970751F0608108
:104E900071816115710521F044815581BDDF01C02B
:104EA00076DFCE01DF91CF910895FC01118210824F
:104EB0001382128215821482E3CFCF93DF93EC0129
:104EC0006115710559F0FB0101900020E9F7AF0170
:104ED00041505109461B570B9FDF01C058DFCE01DF
:104EE000DF91CF910895EF92FF920F931F93CF938D
:104EF000DF93EC017B010C811D816115710511F4BB
:104F000080E014C04115510581F0040F151FB80150
:104F100068DF8823A9F3288139818C819D81B701BD
:104F2000820F931FB9D71D830C8381E0DF91CF914E
:104F30001F910F91FF90EF900895CF93DF9300D0D2
:104F4000CDB7DEB769831A8241E050E0BE016F5FE2
:104F50007F4FC9DF0F900F90DF91CF910895FC0133
:104F600024813581232B31F421E06115710599F0FD
:104F7000FB0108C0FC01808191816115710531F44C
:104F800021E0FC018081882331F004C07CD721E03E
:104F9000892B09F020E0822F0895CF93DF93FC0145
:104FA000848195814817590770F4C081D181772792
:104FB00067FD7095CE01840F951F5AD7009719F0A1
:104FC0008C1B9D0B02C08FEF9FEFDF91CF91089557
:104FD00040E050E0E2CFBF92CF92DF92EF92FF929B
:104FE0000F931F93CF93DF936C017B01EA0189013B
:104FF0002417350720F48D2FE901042F182F66E3BD
:1050000071E0C60128DFD70114968D919C91159708
:10501000C817D907C0F48017910708F48C01D7018D
:10502000ED91FC911197E00FF11FB08010826D910E
:105030007C916C0F7D1FC60140DFD701ED91FC9183
:10504000E00FF11FB082C601DF91CF911F910F9148
:10505000FF90EF90DF90CF90BF900895AF92BF92F6
:10506000CF92DF92EF92FF920F931F93CF93DF9334
:105070007C01DC01CD90DC901197C114D10409F4BE
:105080003EC01496CD91DC9115972097C1F1560141
:105090008501BFEFAB1ABB0AF8018081992787FD14
:1050A0009095CCD6892BA1F72197CC0DDD1D888159
:1050B000992787FD9095C2D6892B89F4AE014F5F61
:1050C0005F4F401B510BD70115965C934E9314977D
:1050D000C016D10648F4B801C601C1D605C0C01734
:1050E000D10760F32197E3CFD701ED91FC911197A0
:1050F00014968D919C911597E80FF91F1082DF91FE
:10510000CF911F910F91FF90EF90DF90CF90BF90C4
:10511000AF900895FC0180819181009709F08BC6C2
:1051200060E070E0CB0108958E3008F08E508770FB
:1051300020910B0190E4299F90011124822B8093F0
:105140007C0080917A00806480937A0080917A005C
:1051500086FDFCCF809178002091790090E0922B21
:105160000895833081F028F4813099F08230A1F0E5
:1051700008958730A9F08830B9F08430D1F4809157
:1051800080008F7D03C0809180008F7780938000A6
:10519000089584B58F7702C084B58F7D84BD08954E
:1051A0008091B0008F7703C08091B0008F7D809395
:1051B000B0000895CF93DF9390E0FC01EF59FD4FCD
:1051C0002491FC01EB58FD4F8491882349F190E034
:1051D000880F991FFC01E356FD4FA591B4918D56A0
:1051E0009D4FFC01C591D4919FB7611108C0F894FF
:1051F0008C91209582238C93888182230AC062300F
:1052000051F4F8948C91322F309583238C938881BC
:10521000822B888304C0F8948C91822B8C939FBF3F
:10522000DF91CF9108950F931F93CF93DF931F9238
:10523000CDB7DEB7282F30E0F901E35BFD4F849155
:10524000F901EF59FD4F1491F901EB58FD4F04910D
:105250000023C1F0882319F0698383DF6981E02F7F
:10526000F0E0EE0FFF1FED56FD4FA591B4919FB7F3
:10527000F8948C91611103C01095812301C0812B9A
:105280008C939FBF0F90DF91CF911F910F91089545
:10529000CF93DF93282F30E0F901E35BFD4F84913A
:1052A000F901EF59FD4FD491F901EB58FD4FC4912D
:1052B000CC2389F0811155DFEC2FF0E0EE0FFF1FBA
:1052C000E757FD4FA591B4912C912D2381E090E0FB
:1052D00021F480E002C080E090E0DF91CF9108955A
:1052E000DB018F939F9355D0BF91AF91A29F800D0B
:1052F000911DA39F900DB29F900D11240895991BAD
:1053000079E004C0991F961708F0961B881F7A95BC
:10531000C9F780950895A1E21A2EAA1BBB1BFD01B7
:105320000DC0AA1FBB1FEE1FFF1FA217B307E40784
:10533000F50720F0A21BB30BE40BF50B661F771FDC
:10534000881F991F1A9469F76095709580959095BC
:105350009B01AC01BD01CF010895052E97FB16F40A
:1053600000940FD057FD05D0D6DF07FC02D046F4DD
:1053700008C050954095309521953F4F4F4F5F4F56
:10538000089590958095709561957F4F8F4F9F4FB1
:1053900008950FD0A59F900DB49F900DA49F800DF0
:1053A000911D11240895EE0FFF1F0590F491E02D3B
:1053B0000994A29FB001B39FC001A39F700D811DEE
:1053C0001124911DB29F700D811D1124911D08950E
:1053D0009F939F7775D10F9000203AF49058A2EADE
:1053E0002AED3FE049E450E413D00DC25058BB27EA
:1053F000AA270ED008C2D1D130F0D6D120F031F496
:105400009F3F11F41EF4A1C10EF4E095E7FB97C194
:10541000E92F1BD280F3BA17620773078407950739
:1054200018F071F49EF533C20EF4E0950B2EBA2FEE
:10543000A02D0B01B90190010C01CA01A00111249A
:10544000FF27591B99F0593F50F4503E68F11A1646
:10545000F040A22F232F342F4427585FF3CF4695D7
:1054600037952795A795F0405395C9F77EF41F16F9
:10547000BA0B620B730B840BBAF09150A1F0FF0FC3
:10548000BB1F661F771F881FC2F70EC0BA0F621FAF
:10549000731F841F48F4879577956795B795F7959F
:1054A0009E3F08F0B3CF9395880F08F09927EE0F31
:1054B000979587950895DF93DD27B92FBF7740E84B
:1054C0005FE31616170648075B0710F4D92FEAD1D9
:1054D0009F938F937F936F9397D2E8E6F0E038D154
:1054E00092D12F913F914F915F91EFD1DD2349F000
:1054F0009058A2EA2AED3FE049EC5FE3D0785D27BF
:1055000087DFDF9180C1F7D008F481E0089554D19E
:10551000E3958AC10CD077C147D140F03ED130F03D
:1055200021F45F3F19F00BC15111B2C10EC18DD1F1
:1055300098F39923C9F35523B1F3951B550BBB275A
:10554000AA2762177307840738F09F5F5F4F220F07
:10555000331F441FAA1FA9F333D00E2E3AF0E0E800
:1055600030D091505040E695001CCAF729D0FE2F4C
:1055700027D0660F771F881FBB1F261737074807DE
:10558000AB07B0E809F0BB0B802DBF01FF27935894
:105590005F4F2AF09E3F510568F0D1C079C15F3F4F
:1055A000ECF3983EDCF3869577956795B795F7957C
:1055B0009F5FC9F7880F911D9695879597F9089574
:1055C000E1E0660F771F881FBB1F62177307840710
:1055D000BA0720F0621B730B840BBA0BEE1F88F71F
:1055E000E095089504D06894B11152C1089535D161
:1055F00088F09F5790F0B92F9927B751A0F0D1F0BC
:10560000660F771F881F991F1AF0BA95C9F712C045
:10561000B13081F03CD1B1E0089539C1672F782FC6
:105620008827B85F39F0B93FCCF3869577956795B1
:10563000B395D9F73EF490958095709561957F4F1D
:105640008F4F9F4F0895E89409C097FB3EF49095C3
:105650008095709561957F4F8F4F9F4F9923A9F04B
:10566000F92F96E9BB279395F695879577956795DA
:10567000B795F111F8CFFAF4BB0F11F460FF1BC01E
:105680006F5F7F4F8F4F9F4F16C0882311F096E9B1
:1056900011C0772321F09EE8872F762F05C066235F
:1056A00071F096E8862F70E060E02AF09A95660F18
:1056B000771F881FDAF7880F9695879597F90895D1
:1056C000DF93CF931F930F938B01EC01E5E9F0E09B
:1056D0003FD099D09801AE018B01EC0160E070E001
:1056E00080E89FE383DE52D19801AE010F911F91B4
:1056F000CF91DF91EAC0990F0008550FAA0BE0E89F
:10570000FEEF16161706E807F907C0F01216130683
:10571000E407F50798F0621B730B840B950B39F4C3
:105720000A2661F0232B242B252B21F408950A2629
:1057300009F4A140A6958FEF811D811D089597F969
:105740009F6780E870E060E008959FEF80EC089527
:10575000DF93CF931F930F93FF92EF92DF927B0122
:105760008C01689405C0DA2EEF01AFD0FE01E894F9
:10577000A5912591359145915591AEF3EF0148DE04
:10578000FE019701A801DA9479F7DF90EF90FF907E
:105790000F911F91CF91DF91089500240A9416165E
:1057A000170618060906089500240A94121613060F
:1057B000140605060895C9CF50D0E8F3E894E0E058
:1057C000BB279F57F0F02AED3FE049EC06C0EE0FF3
:1057D000BB0F661F771F881F28F0B23A6207730756
:1057E000840728F0B25A620B730B840BE3959A95E9
:1057F00072F7803830F49A95BB0F661F771F881FA9
:10580000D2F790480AC1092E0394000C11F48823A2
:1058100052F0BB0F40F4BF2B11F460FF04C06F5F68
:105820007F4F8F4F9F4F0895EF93E0FF06C0A2EA8E
:105830002AED3FE049EC5FEBEBDDE5DF0F900394F1
:1058400001FC9058EDEBF0E0FBC057FD9058440F81
:10585000551F59F05F3F71F04795880F97FB991FCF
:1058600061F09F3F79F0879508951216130614068C
:10587000551FF2CF4695F1DF08C016161706180619
:10588000991FF1CF86957105610508940895E894F4
:10589000BB2766277727CB0197F908952CDF08F4FB
:1058A0008FEF08959B01AC0160E070E080E89FE31A
:1058B00031CE0BD0A8CF71DF28F076DF18F095231A
:1058C00009F03DCF42CF1124E3CFBFDFA0F3959F76
:1058D000D1F3950F50E0551F629FF001729FBB27D7
:1058E000F00DB11D639FAA27F00DB11DAA1F649F83
:1058F0006627B00DA11D661F829F2227B00DA11D36
:10590000621F739FB00DA11D621F839FA00D611DBB
:10591000221F749F3327A00D611D231F849F600DDC
:10592000211D822F762F6A2F11249F5750408AF015
:10593000E1F088234AF0EE0FFF1FBB1F661F771FA1
:10594000881F91505040A9F79E3F510570F0F7CE47
:105950009FCF5F3FECF3983EDCF386957795679594
:10596000B795F795E7959F5FC1F7FE2B880F911DBF
:105970009695879597F908959F931EDF0F9007FCE2
:10598000EE5F52CF11F40EF4E0CE45C066DFD0F3E7
:105990009923D9F3CEF39F57550B87FF4AD00024A4
:1059A000A0E640EA900180585695979528F4805CCF
:1059B000660F771F881F20F026173707480730F437
:1059C000621B730B840B202931294A2BA69517944F
:1059D0000794202531254A2758F7660F771F881F1F
:1059E00020F026173707480730F4620B730B840B3F
:1059F000200D311D411DA09581F7B901842F9158CB
:105A0000880F9695879508959B01AC0152CF73DE60
:105A1000880B990B08959F3F31F0915020F48795A2
:105A200077956795B795880F911D9695879597F906
:105A3000089591505040660F771F881FD2F7089540
:105A40009F938F937F936F93FF93EF939B01AC0191
:105A500030DFEF91FF917CDE2F913F914F915F916D
:105A600028CFCF93DF938230910510F482E090E04D
:105A7000E0919D05F0919E0520E030E0A0E0B0E0CF
:105A8000309739F14081518148175907B8F04817CC
:105A9000590771F482819381109729F013969C9392
:105AA0008E9312972CC090939E0580939D0527C0DE
:105AB0002115310531F04217530718F0A901DB0118
:105AC00001C0EF019A01BD01DF010280F381E02DE9
:105AD000D7CF21153105F9F0281B390B24303105BA
